{"abi":[{"type":"function","name":"deposit","inputs":[{"name":"_unlockTime","type":"uint256","internalType":"uint256"}],"outputs":[{"name":"","type":"uint256","internalType":"uint256"}],"stateMutability":"payable"},{"type":"function","name":"getActiveVaults","inputs":[{"name":"_user","type":"address","internalType":"address"}],"outputs":[{"name":"activeVaults","type":"uint256[]","internalType":"uint256[]"},{"name":"balances","type":"uint256[]","internalType":"uint256[]"},{"name":"unlockTimes","type":"uint256[]","internalType":"uint256[]"}],"stateMutability":"view"},{"type":"function","name":"getAllVaults","inputs":[{"name":"_user","type":"address","internalType":"address"}],"outputs":[{"name":"","type":"tuple[]","internalType":"struct TimeLock.Vault[]","components":[{"name":"balance","type":"uint256","internalType":"uint256"},{"name":"unlockTime","type":"uint256","internalType":"uint256"},{"name":"active","type":"bool","internalType":"bool"}]}],"stateMutability":"view"},{"type":"function","name":"getTotalBalance","inputs":[{"name":"_user","type":"address","internalType":"address"}],"outputs":[{"name":"total","type":"uint256","internalType":"uint256"}],"stateMutability":"view"},{"type":"function","name":"getUnlockedBalance","inputs":[{"name":"_user","type":"address","internalType":"address"}],"outputs":[{"name":"unlocked","type":"uint256","internalType":"uint256"}],"stateMutability":"view"},{"type":"function","name":"getVault","inputs":[{"name":"_user","type":"address","internalType":"address"},{"name":"_vaultId","type":"uint256","internalType":"uint256"}],"outputs":[{"name":"balance","type":"uint256","internalType":"uint256"},{"name":"unlockTime","type":"uint256","internalType":"uint256"},{"name":"active","type":"bool","internalType":"bool"},{"name":"isUnlocked","type":"bool","internalType":"bool"}],"stateMutability":"view"},{"type":"function","name":"getVaultCount","inputs":[{"name":"_user","type":"address","internalType":"address"}],"outputs":[{"name":"","type":"uint256","internalType":"uint256"}],"stateMutability":"view"},{"type":"function","name":"withdraw","inputs":[{"name":"_vaultId","type":"uint256","internalType":"uint256"}],"outputs":[],"stateMutability":"nonpayable"},{"type":"function","name":"withdrawAll","inputs":[],"outputs":[{"name":"","type":"uint256","internalType":"uint256"}],"stateMutability":"nonpayable"},{"type":"event","name":"Deposited","inputs":[{"name":"user","type":"address","indexed":true,"internalType":"address"},{"name":"vaultId","type":"uint256","indexed":false,"internalType":"uint256"},{"name":"amount","type":"uint256","indexed":false,"internalType":"uint256"},{"name":"unlockTime","type":"uint256","indexed":false,"internalType":"uint256"}],"anonymous":false},{"type":"event","name":"Withdrawn","inputs":[{"name":"user","type":"address","indexed":true,"internalType":"address"},{"name":"vaultId","type":"uint256","indexed":false,"internalType":"uint256"},{"name":"amount","type":"uint256","indexed":false,"internalType":"uint256"}],"anonymous":false}],"bytecode":{"object":"0x6080604052348015600e575f5ffd5b50611a6e8061001c5f395ff3fe608060405260043610610085575f3560e01c8063853828b611610058578063853828b614610167578063a2e5437c14610191578063b6b55f25146101cd578063d3d38193146101fd578063d99d13f51461023957610085565b8063129de5bf146100895780632e1a7d4d146100c557806357c57f72146100ed57806377e1296e1461012b575b5f5ffd5b348015610094575f5ffd5b506100af60048036038101906100aa9190611167565b610278565b6040516100bc91906111aa565b60405180910390f35b3480156100d0575f5ffd5b506100eb60048036038101906100e691906111ed565b61039b565b005b3480156100f8575f5ffd5b50610113600480360381019061010e9190611167565b61067d565b604051610122939291906112cf565b60405180910390f35b348015610136575f5ffd5b50610151600480360381019061014c9190611167565b610973565b60405161015e91906111aa565b60405180910390f35b348015610172575f5ffd5b5061017b6109bb565b60405161018891906111aa565b60405180910390f35b34801561019c575f5ffd5b506101b760048036038101906101b29190611167565b610c83565b6040516101c4919061141b565b60405180910390f35b6101e760048036038101906101e291906111ed565b610d48565b6040516101f491906111aa565b60405180910390f35b348015610208575f5ffd5b50610223600480360381019061021e9190611167565b610f2a565b60405161023091906111aa565b60405180910390f35b348015610244575f5ffd5b5061025f600480360381019061025a919061143b565b610ff3565b60405161026f9493929190611488565b60405180910390f35b5f5f5f5f8473ffffffffffffffffffffffffffffffffffffffff1673ffffffffffffffffffffffffffffffffffffffff1681526020019081526020015f2090505f5f90505b8180549050811015610394578181815481106102dc576102db6114cb565b5b905f5260205f2090600302016002015f9054906101000a900460ff16801561032457505f828281548110610313576103126114cb565b5b905f5260205f2090600302015f0154115b8015610352575081818154811061033e5761033d6114cb565b5b905f5260205f209060030201600101544210155b156103875781818154811061036a576103696114cb565b5b905f5260205f2090600302015f0154836103849190611525565b92505b80806001019150506102bd565b5050919050565b5f5f3373ffffffffffffffffffffffffffffffffffffffff1673ffffffffffffffffffffffffffffffffffffffff1681526020019081526020015f2080549050811061041c576040517f08c379a0000000000000000000000000000000000000000000000000000000008152600401610413906115b2565b60405180910390fd5b5f5f5f3373ffffffffffffffffffffffffffffffffffffffff1673ffffffffffffffffffffffffffffffffffffffff1681526020019081526020015f20828154811061046b5761046a6114cb565b5b905f5260205f2090600302019050806002015f9054906101000a900460ff166104c9576040517f08c379a00000000000000000000000000000000000000000000000000000000081526004016104c09061161a565b60405180910390fd5b5f815f01541161050e576040517f08c379a000000000000000000000000000000000000000000000000000000000815260040161050590611682565b60405180910390fd5b8060010154421015610555576040517f08c379a000000000000000000000000000000000000000000000000000000000815260040161054c906116ea565b60405180910390fd5b5f815f015490505f825f01819055505f826002015f6101000a81548160ff0219169083151502179055505f3373ffffffffffffffffffffffffffffffffffffffff16826040516105a490611735565b5f6040518083038185875af1925050503d805f81146105de576040519150601f19603f3d011682016040523d82523d5f602084013e6105e3565b606091505b5050905080610627576040517f08c379a000000000000000000000000000000000000000000000000000000000815260040161061e90611793565b60405180910390fd5b3373ffffffffffffffffffffffffffffffffffffffff167f92ccf450a286a957af52509bc1c9939d1a6a481783e142e41e2499f0bb66ebc6858460405161066f9291906117b1565b60405180910390a250505050565b60608060605f5f5f8673ffffffffffffffffffffffffffffffffffffffff1673ffffffffffffffffffffffffffffffffffffffff1681526020019081526020015f2090505f5f90505f5f90505b8280549050811015610752578281815481106106e9576106e86114cb565b5b905f5260205f2090600302016002015f9054906101000a900460ff16801561073157505f8382815481106107205761071f6114cb565b5b905f5260205f2090600302015f0154115b15610745578180610741906117d8565b9250505b80806001019150506106ca565b508067ffffffffffffffff81111561076d5761076c61181f565b5b60405190808252806020026020018201604052801561079b5781602001602082028036833780820191505090505b5094508067ffffffffffffffff8111156107b8576107b761181f565b5b6040519080825280602002602001820160405280156107e65781602001602082028036833780820191505090505b5093508067ffffffffffffffff8111156108035761080261181f565b5b6040519080825280602002602001820160405280156108315781602001602082028036833780820191505090505b5092505f5f90505f5f90505b83805490508110156109685783818154811061085c5761085b6114cb565b5b905f5260205f2090600302016002015f9054906101000a900460ff1680156108a457505f848281548110610893576108926114cb565b5b905f5260205f2090600302015f0154115b1561095b57808783815181106108bd576108bc6114cb565b5b6020026020010181815250508381815481106108dc576108db6114cb565b5b905f5260205f2090600302015f01548683815181106108fe576108fd6114cb565b5b60200260200101818152505083818154811061091d5761091c6114cb565b5b905f5260205f209060030201600101548583815181106109405761093f6114cb565b5b6020026020010181815250508180610957906117d8565b9250505b808060010191505061083d565b505050509193909250565b5f5f5f8373ffffffffffffffffffffffffffffffffffffffff1673ffffffffffffffffffffffffffffffffffffffff1681526020019081526020015f20805490509050919050565b5f5f5f90505f5f5f3373ffffffffffffffffffffffffffffffffffffffff1673ffffffffffffffffffffffffffffffffffffffff1681526020019081526020015f2090505f5f90505b8180549050811015610b8f57818181548110610a2357610a226114cb565b5b905f5260205f2090600302016002015f9054906101000a900460ff168015610a6b57505f828281548110610a5a57610a596114cb565b5b905f5260205f2090600302015f0154115b8015610a995750818181548110610a8557610a846114cb565b5b905f5260205f209060030201600101544210155b15610b82575f828281548110610ab257610ab16114cb565b5b905f5260205f2090600302015f015490505f838381548110610ad757610ad66114cb565b5b905f5260205f2090600302015f01819055505f838381548110610afd57610afc6114cb565b5b905f5260205f2090600302016002015f6101000a81548160ff0219169083151502179055508084610b2e9190611525565b93503373ffffffffffffffffffffffffffffffffffffffff167f92ccf450a286a957af52509bc1c9939d1a6a481783e142e41e2499f0bb66ebc68383604051610b789291906117b1565b60405180910390a2505b8080600101915050610a04565b505f8211610bd2576040517f08c379a0000000000000000000000000000000000000000000000000000000008152600401610bc990611896565b60405180910390fd5b5f3373ffffffffffffffffffffffffffffffffffffffff1683604051610bf790611735565b5f6040518083038185875af1925050503d805f8114610c31576040519150601f19603f3d011682016040523d82523d5f602084013e610c36565b606091505b5050905080610c7a576040517f08c379a0000000000000000000000000000000000000000000000000000000008152600401610c7190611793565b60405180910390fd5b82935050505090565b60605f5f8373ffffffffffffffffffffffffffffffffffffffff1673ffffffffffffffffffffffffffffffffffffffff1681526020019081526020015f20805480602002602001604051908101604052809291908181526020015f905b82821015610d3d578382905f5260205f2090600302016040518060600160405290815f820154815260200160018201548152602001600282015f9054906101000a900460ff16151515158152505081526020019060010190610ce0565b505050509050919050565b5f5f3411610d8b576040517f08c379a0000000000000000000000000000000000000000000000000000000008152600401610d8290611924565b60405180910390fd5b428211610dcd576040517f08c379a0000000000000000000000000000000000000000000000000000000008152600401610dc4906119b2565b60405180910390fd5b5f5f3373ffffffffffffffffffffffffffffffffffffffff1673ffffffffffffffffffffffffffffffffffffffff1681526020019081526020015f20604051806060016040528034815260200184815260200160011515815250908060018154018082558091505060019003905f5260205f2090600302015f909190919091505f820151815f0155602082015181600101556040820151816002015f6101000a81548160ff02191690831515021790555050505f60015f5f3373ffffffffffffffffffffffffffffffffffffffff1673ffffffffffffffffffffffffffffffffffffffff1681526020019081526020015f2080549050610ecd91906119d0565b90503373ffffffffffffffffffffffffffffffffffffffff167f91ede45f04a37a7c170f5c1207df3b6bc748dc1e04ad5e917a241d0f52feada3823486604051610f1993929190611a03565b60405180910390a280915050919050565b5f5f5f5f8473ffffffffffffffffffffffffffffffffffffffff1673ffffffffffffffffffffffffffffffffffffffff1681526020019081526020015f2090505f5f90505b8180549050811015610fec57818181548110610f8e57610f8d6114cb565b5b905f5260205f2090600302016002015f9054906101000a900460ff1615610fdf57818181548110610fc257610fc16114cb565b5b905f5260205f2090600302015f015483610fdc9190611525565b92505b8080600101915050610f6f565b5050919050565b5f5f5f5f5f5f8773ffffffffffffffffffffffffffffffffffffffff1673ffffffffffffffffffffffffffffffffffffffff1681526020019081526020015f20805490508510611078576040517f08c379a000000000000000000000000000000000000000000000000000000000815260040161106f906115b2565b60405180910390fd5b5f5f5f8873ffffffffffffffffffffffffffffffffffffffff1673ffffffffffffffffffffffffffffffffffffffff1681526020019081526020015f2086815481106110c7576110c66114cb565b5b905f5260205f2090600302019050805f01548160010154826002015f9054906101000a900460ff16836001015442101594509450945094505092959194509250565b5f5ffd5b5f73ffffffffffffffffffffffffffffffffffffffff82169050919050565b5f6111368261110d565b9050919050565b6111468161112c565b8114611150575f5ffd5b50565b5f813590506111618161113d565b92915050565b5f6020828403121561117c5761117b611109565b5b5f61118984828501611153565b91505092915050565b5f819050919050565b6111a481611192565b82525050565b5f6020820190506111bd5f83018461119b565b92915050565b6111cc81611192565b81146111d6575f5ffd5b50565b5f813590506111e7816111c3565b92915050565b5f6020828403121561120257611201611109565b5b5f61120f848285016111d9565b91505092915050565b5f81519050919050565b5f82825260208201905092915050565b5f819050602082019050919050565b61124a81611192565b82525050565b5f61125b8383611241565b60208301905092915050565b5f602082019050919050565b5f61127d82611218565b6112878185611222565b935061129283611232565b805f5b838110156112c25781516112a98882611250565b97506112b483611267565b925050600181019050611295565b5085935050505092915050565b5f6060820190508181035f8301526112e78186611273565b905081810360208301526112fb8185611273565b9050818103604083015261130f8184611273565b9050949350505050565b5f81519050919050565b5f82825260208201905092915050565b5f819050602082019050919050565b5f8115159050919050565b61135681611342565b82525050565b606082015f8201516113705f850182611241565b5060208201516113836020850182611241565b506040820151611396604085018261134d565b50505050565b5f6113a7838361135c565b60608301905092915050565b5f602082019050919050565b5f6113c982611319565b6113d38185611323565b93506113de83611333565b805f5b8381101561140e5781516113f5888261139c565b9750611400836113b3565b9250506001810190506113e1565b5085935050505092915050565b5f6020820190508181035f83015261143381846113bf565b905092915050565b5f5f6040838503121561145157611450611109565b5b5f61145e85828601611153565b925050602061146f858286016111d9565b9150509250929050565b61148281611342565b82525050565b5f60808201905061149b5f83018761119b565b6114a8602083018661119b565b6114b56040830185611479565b6114c26060830184611479565b95945050505050565b7f4e487b71000000000000000000000000000000000000000000000000000000005f52603260045260245ffd5b7f4e487b71000000000000000000000000000000000000000000000000000000005f52601160045260245ffd5b5f61152f82611192565b915061153a83611192565b9250828201905080821115611552576115516114f8565b5b92915050565b5f82825260208201905092915050565b7f496e76616c6964207661756c74204944000000000000000000000000000000005f82015250565b5f61159c601083611558565b91506115a782611568565b602082019050919050565b5f6020820190508181035f8301526115c981611590565b9050919050565b7f5661756c74206973206e6f7420616374697665000000000000000000000000005f82015250565b5f611604601383611558565b915061160f826115d0565b602082019050919050565b5f6020820190508181035f830152611631816115f8565b9050919050565b7f5661756c7420686173207a65726f2062616c616e6365000000000000000000005f82015250565b5f61166c601683611558565b915061167782611638565b602082019050919050565b5f6020820190508181035f83015261169981611660565b9050919050565b7f46756e647320617265207374696c6c206c6f636b6564000000000000000000005f82015250565b5f6116d4601683611558565b91506116df826116a0565b602082019050919050565b5f6020820190508181035f830152611701816116c8565b9050919050565b5f81905092915050565b50565b5f6117205f83611708565b915061172b82611712565b5f82019050919050565b5f61173f82611715565b9150819050919050565b7f5472616e73666572206661696c656400000000000000000000000000000000005f82015250565b5f61177d600f83611558565b915061178882611749565b602082019050919050565b5f6020820190508181035f8301526117aa81611771565b9050919050565b5f6040820190506117c45f83018561119b565b6117d1602083018461119b565b9392505050565b5f6117e282611192565b91507fffffffffffffffffffffffffffffffffffffffffffffffffffffffffffffffff8203611814576118136114f8565b5b600182019050919050565b7f4e487b71000000000000000000000000000000000000000000000000000000005f52604160045260245ffd5b7f4e6f20756e6c6f636b65642066756e647320617661696c61626c6500000000005f82015250565b5f611880601b83611558565b915061188b8261184c565b602082019050919050565b5f6020820190508181035f8301526118ad81611874565b9050919050565b7f4465706f736974206d7573742062652067726561746572207468616e207a65725f8201527f6f00000000000000000000000000000000000000000000000000000000000000602082015250565b5f61190e602183611558565b9150611919826118b4565b604082019050919050565b5f6020820190508181035f83015261193b81611902565b9050919050565b7f556e6c6f636b2074696d65206d75737420626520696e207468652066757475725f8201527f6500000000000000000000000000000000000000000000000000000000000000602082015250565b5f61199c602183611558565b91506119a782611942565b604082019050919050565b5f6020820190508181035f8301526119c981611990565b9050919050565b5f6119da82611192565b91506119e583611192565b92508282039050818111156119fd576119fc6114f8565b5b92915050565b5f606082019050611a165f83018661119b565b611a23602083018561119b565b611a30604083018461119b565b94935050505056fea26469706673582212204f19d18c2023405a7ba7c061ce3c8beedab05b9f8efc7fb5462655cb73c3798264736f6c634300081c0033","linkReferences":{}},"methodIdentifiers":{"deposit(uint256)":"b6b55f25","getActiveVaults(address)":"57c57f72","getAllVaults(address)":"a2e5437c","getTotalBalance(address)":"d3d38193","getUnlockedBalance(address)":"129de5bf","getVault(address,uint256)":"d99d13f5","getVaultCount(address)":"77e1296e","withdraw(uint256)":"2e1a7d4d","withdrawAll()":"853828b6"},"id":30}