{
  "_format": "hh3-artifact-1",
  "contractName": "ERC20",
  "sourceName": "contracts/ERC20.sol",
  "abi": [
    {
      "inputs": [
        {
          "internalType": "string",
          "name": "_name",
          "type": "string"
        },
        {
          "internalType": "string",
          "name": "_symbol",
          "type": "string"
        },
        {
          "internalType": "uint8",
          "name": "_decimals",
          "type": "uint8"
        },
        {
          "internalType": "uint256",
          "name": "initialSupply",
          "type": "uint256"
        }
      ],
      "stateMutability": "nonpayable",
      "type": "constructor"
    },
    {
      "anonymous": false,
      "inputs": [
        {
          "indexed": true,
          "internalType": "address",
          "name": "owner",
          "type": "address"
        },
        {
          "indexed": true,
          "internalType": "address",
          "name": "spender",
          "type": "address"
        },
        {
          "indexed": false,
          "internalType": "uint256",
          "name": "value",
          "type": "uint256"
        }
      ],
      "name": "Approval",
      "type": "event"
    },
    {
      "anonymous": false,
      "inputs": [
        {
          "indexed": true,
          "internalType": "address",
          "name": "from",
          "type": "address"
        },
        {
          "indexed": true,
          "internalType": "address",
          "name": "to",
          "type": "address"
        },
        {
          "indexed": false,
          "internalType": "uint256",
          "name": "value",
          "type": "uint256"
        }
      ],
      "name": "Transfer",
      "type": "event"
    },
    {
      "inputs": [
        {
          "internalType": "address",
          "name": "owner",
          "type": "address"
        },
        {
          "internalType": "address",
          "name": "spender",
          "type": "address"
        }
      ],
      "name": "allowance",
      "outputs": [
        {
          "internalType": "uint256",
          "name": "",
          "type": "uint256"
        }
      ],
      "stateMutability": "view",
      "type": "function"
    },
    {
      "inputs": [
        {
          "internalType": "address",
          "name": "spender",
          "type": "address"
        },
        {
          "internalType": "uint256",
          "name": "amount",
          "type": "uint256"
        }
      ],
      "name": "approve",
      "outputs": [
        {
          "internalType": "bool",
          "name": "",
          "type": "bool"
        }
      ],
      "stateMutability": "nonpayable",
      "type": "function"
    },
    {
      "inputs": [],
      "name": "decimals",
      "outputs": [
        {
          "internalType": "uint8",
          "name": "",
          "type": "uint8"
        }
      ],
      "stateMutability": "view",
      "type": "function"
    },
    {
      "inputs": [
        {
          "internalType": "uint256",
          "name": "amount",
          "type": "uint256"
        }
      ],
      "name": "mint",
      "outputs": [
        {
          "internalType": "bool",
          "name": "",
          "type": "bool"
        }
      ],
      "stateMutability": "nonpayable",
      "type": "function"
    },
    {
      "inputs": [],
      "name": "name",
      "outputs": [
        {
          "internalType": "string",
          "name": "",
          "type": "string"
        }
      ],
      "stateMutability": "view",
      "type": "function"
    },
    {
      "inputs": [],
      "name": "symbol",
      "outputs": [
        {
          "internalType": "string",
          "name": "",
          "type": "string"
        }
      ],
      "stateMutability": "view",
      "type": "function"
    },
    {
      "inputs": [],
      "name": "totalsupply",
      "outputs": [
        {
          "internalType": "uint256",
          "name": "",
          "type": "uint256"
        }
      ],
      "stateMutability": "view",
      "type": "function"
    },
    {
      "inputs": [
        {
          "internalType": "address",
          "name": "to",
          "type": "address"
        },
        {
          "internalType": "uint256",
          "name": "amount",
          "type": "uint256"
        }
      ],
      "name": "transfer",
      "outputs": [
        {
          "internalType": "bool",
          "name": "",
          "type": "bool"
        }
      ],
      "stateMutability": "nonpayable",
      "type": "function"
    },
    {
      "inputs": [
        {
          "internalType": "address",
          "name": "from",
          "type": "address"
        },
        {
          "internalType": "address",
          "name": "to",
          "type": "address"
        },
        {
          "internalType": "uint256",
          "name": "amount",
          "type": "uint256"
        }
      ],
      "name": "transferFrom",
      "outputs": [
        {
          "internalType": "bool",
          "name": "",
          "type": "bool"
        }
      ],
      "stateMutability": "nonpayable",
      "type": "function"
    }
  ],
  "bytecode": "0x608060405234801561000f575f5ffd5b50604051610b13380380610b1383398101604081905261002e916101e6565b5f61003985826102ed565b50600161004684826102ed565b506002805460ff191660ff84161790556100603382610069565b505050506103cc565b6001600160a01b0382166100c35760405162461bcd60e51b815260206004820152601b60248201527f63616e6e6f74206d696e7420746f2061646472657373207a65726f0000000000604482015260640160405180910390fd5b8060035f8282546100d491906103a7565b90915550506001600160a01b0382165f90815260046020526040812080548392906101009084906103a7565b90915550506040518181526001600160a01b038316905f907fddf252ad1be2c89b69c2b068fc378daa952ba7f163c4a11628f55a4df523b3ef9060200160405180910390a35050565b634e487b7160e01b5f52604160045260245ffd5b5f82601f83011261016c575f5ffd5b81516001600160401b0381111561018557610185610149565b604051601f8201601f19908116603f011681016001600160401b03811182821017156101b3576101b3610149565b6040528181528382016020018510156101ca575f5ffd5b8160208501602083015e5f918101602001919091529392505050565b5f5f5f5f608085870312156101f9575f5ffd5b84516001600160401b0381111561020e575f5ffd5b61021a8782880161015d565b602087015190955090506001600160401b03811115610237575f5ffd5b6102438782880161015d565b935050604085015160ff81168114610259575f5ffd5b6060959095015193969295505050565b600181811c9082168061027d57607f821691505b60208210810361029b57634e487b7160e01b5f52602260045260245ffd5b50919050565b601f8211156102e857805f5260205f20601f840160051c810160208510156102c65750805b601f840160051c820191505b818110156102e5575f81556001016102d2565b50505b505050565b81516001600160401b0381111561030657610306610149565b61031a816103148454610269565b846102a1565b6020601f82116001811461034c575f83156103355750848201515b5f19600385901b1c1916600184901b1784556102e5565b5f84815260208120601f198516915b8281101561037b578785015182556020948501946001909201910161035b565b508482101561039857868401515f19600387901b60f8161c191681555b50505050600190811b01905550565b808201808211156103c657634e487b7160e01b5f52601160045260245ffd5b92915050565b61073a806103d95f395ff3fe608060405234801561000f575f5ffd5b5060043610610090575f3560e01c806372dd529b1161006357806372dd529b1461010757806395d89b4114610119578063a0712d6814610121578063a9059cbb14610134578063dd62ed3e14610147575f5ffd5b806306fdde0314610094578063095ea7b3146100b257806323b872dd146100d5578063313ce567146100e8575b5f5ffd5b61009c61017f565b6040516100a99190610598565b60405180910390f35b6100c56100c03660046105e8565b61020a565b60405190151581526020016100a9565b6100c56100e3366004610610565b610276565b6002546100f59060ff1681565b60405160ff90911681526020016100a9565b6003545b6040519081526020016100a9565b61009c610367565b6100c561012f36600461064a565b610374565b6100c56101423660046105e8565b610387565b61010b610155366004610661565b6001600160a01b039182165f90815260056020908152604080832093909416825291909152205490565b5f805461018b90610692565b80601f01602080910402602001604051908101604052809291908181526020018280546101b790610692565b80156102025780601f106101d957610100808354040283529160200191610202565b820191905f5260205f20905b8154815290600101906020018083116101e557829003601f168201915b505050505081565b335f8181526005602090815260408083206001600160a01b038716808552925280832085905551919290917f8c5be1e5ebec7d5bd14f71427d1e84f3dd0314c0f7b2291e5b200ac8c7c3b925906102649086815260200190565b60405180910390a35060015b92915050565b6001600160a01b0383165f908152600560209081526040808320338452909152812054828110156102ee5760405162461bcd60e51b815260206004820152601760248201527f696e73756666696369656e7420616c6c6f7761616e636500000000000000000060448201526064015b60405180910390fd5b6102f883826106de565b6001600160a01b0386165f81815260056020908152604080832033808552908352928190208590555193845290927f8c5be1e5ebec7d5bd14f71427d1e84f3dd0314c0f7b2291e5b200ac8c7c3b925910160405180910390a361035c85858561039c565b506001949350505050565b6001805461018b90610692565b5f61037f33836104bc565b506001919050565b5f61039333848461039c565b50600192915050565b6001600160a01b0382166103f25760405162461bcd60e51b815260206004820152601860248201527f7472616e7366657220746f2061646472657373207a65726f000000000000000060448201526064016102e5565b6001600160a01b0383165f908152600460205260409020548181101561044f5760405162461bcd60e51b8152602060048201526012602482015271696e73756666696369656e742066756e647360701b60448201526064016102e5565b6001600160a01b038085165f8181526004602052604080822086860390559286168082529083902080548601905591517fddf252ad1be2c89b69c2b068fc378daa952ba7f163c4a11628f55a4df523b3ef906104ae9086815260200190565b60405180910390a350505050565b6001600160a01b0382166105125760405162461bcd60e51b815260206004820152601b60248201527f63616e6e6f74206d696e7420746f2061646472657373207a65726f000000000060448201526064016102e5565b8060035f82825461052391906106f1565b90915550506001600160a01b0382165f908152600460205260408120805483929061054f9084906106f1565b90915550506040518181526001600160a01b038316905f907fddf252ad1be2c89b69c2b068fc378daa952ba7f163c4a11628f55a4df523b3ef9060200160405180910390a35050565b602081525f82518060208401528060208501604085015e5f604082850101526040601f19601f83011684010191505092915050565b80356001600160a01b03811681146105e3575f5ffd5b919050565b5f5f604083850312156105f9575f5ffd5b610602836105cd565b946020939093013593505050565b5f5f5f60608486031215610622575f5ffd5b61062b846105cd565b9250610639602085016105cd565b929592945050506040919091013590565b5f6020828403121561065a575f5ffd5b5035919050565b5f5f60408385031215610672575f5ffd5b61067b836105cd565b9150610689602084016105cd565b90509250929050565b600181811c908216806106a657607f821691505b6020821081036106c457634e487b7160e01b5f52602260045260245ffd5b50919050565b634e487b7160e01b5f52601160045260245ffd5b81810381811115610270576102706106ca565b80820180821115610270576102706106ca56fea26469706673582212200e07552f27ba017bf122ace27481b35f159ae7c7f8ec9b1d95c1762b045e9ee464736f6c634300081c0033",
  "linkReferences": {},
  "deployedLinkReferences": {},
  "immutableReferences": {},
  "inputSourceName": "project/contracts/ERC20.sol",
  "buildInfoId": "solc-0_8_28-f97e8f1d6f24e26af748ec1e5cc2e285b5f5190a"
}