{"abi":[{"type":"constructor","inputs":[{"name":"_token","type":"address","internalType":"address"}],"stateMutability":"nonpayable"},{"type":"function","name":"acceptOwnership","inputs":[],"outputs":[],"stateMutability":"nonpayable"},{"type":"function","name":"deposit","inputs":[{"name":"_unlockTime","type":"uint256","internalType":"uint256"}],"outputs":[],"stateMutability":"payable"},{"type":"function","name":"emergencyWithdraw","inputs":[],"outputs":[{"name":"amount","type":"uint256","internalType":"uint256"}],"stateMutability":"nonpayable"},{"type":"function","name":"ethToUSD","inputs":[{"name":"amount","type":"uint256","internalType":"uint256"}],"outputs":[{"name":"returnedValue","type":"uint256","internalType":"uint256"}],"stateMutability":"view"},{"type":"function","name":"getActiveVaults","inputs":[{"name":"_user","type":"address","internalType":"address"}],"outputs":[{"name":"activeVaults","type":"uint256[]","internalType":"uint256[]"},{"name":"balances","type":"uint256[]","internalType":"uint256[]"},{"name":"tokenBalances","type":"uint256[]","internalType":"uint256[]"},{"name":"unlockTimes","type":"uint256[]","internalType":"uint256[]"}],"stateMutability":"view"},{"type":"function","name":"getAllVaults","inputs":[{"name":"_user","type":"address","internalType":"address"}],"outputs":[{"name":"","type":"tuple[]","internalType":"struct TimeLockV3.Vault[]","components":[{"name":"balance","type":"uint256","internalType":"uint256"},{"name":"tokenBalance","type":"uint256","internalType":"uint256"},{"name":"unlockTime","type":"uint256","internalType":"uint256"},{"name":"active","type":"bool","internalType":"bool"}]}],"stateMutability":"view"},{"type":"function","name":"getDecimals","inputs":[],"outputs":[{"name":"","type":"uint8","internalType":"uint8"}],"stateMutability":"view"},{"type":"function","name":"getETHUSDPrice","inputs":[],"outputs":[{"name":"","type":"int256","internalType":"int256"}],"stateMutability":"view"},{"type":"function","name":"getTotalBalance","inputs":[{"name":"_user","type":"address","internalType":"address"}],"outputs":[{"name":"total","type":"uint256","internalType":"uint256"}],"stateMutability":"view"},{"type":"function","name":"getUnlockedBalance","inputs":[{"name":"_user","type":"address","internalType":"address"}],"outputs":[{"name":"unlocked","type":"uint256","internalType":"uint256"}],"stateMutability":"view"},{"type":"function","name":"getVault","inputs":[{"name":"_user","type":"address","internalType":"address"},{"name":"_vaultId","type":"uint256","internalType":"uint256"}],"outputs":[{"name":"balance","type":"uint256","internalType":"uint256"},{"name":"tokenBalance","type":"uint256","internalType":"uint256"},{"name":"unlockTime","type":"uint256","internalType":"uint256"},{"name":"active","type":"bool","internalType":"bool"},{"name":"isUnlocked","type":"bool","internalType":"bool"}],"stateMutability":"view"},{"type":"function","name":"getVaultCount","inputs":[{"name":"_user","type":"address","internalType":"address"}],"outputs":[{"name":"","type":"uint256","internalType":"uint256"}],"stateMutability":"view"},{"type":"function","name":"owner","inputs":[],"outputs":[{"name":"","type":"address","internalType":"address"}],"stateMutability":"view"},{"type":"function","name":"pendingOwner","inputs":[],"outputs":[{"name":"","type":"address","internalType":"address"}],"stateMutability":"view"},{"type":"function","name":"token","inputs":[],"outputs":[{"name":"","type":"address","internalType":"contract IErc20"}],"stateMutability":"view"},{"type":"function","name":"transferOwnership","inputs":[{"name":"newOwner","type":"address","internalType":"address"}],"outputs":[],"stateMutability":"nonpayable"},{"type":"function","name":"withdraw","inputs":[{"name":"_vaultId","type":"uint256","internalType":"uint256"}],"outputs":[],"stateMutability":"nonpayable"},{"type":"function","name":"withdrawAll","inputs":[],"outputs":[{"name":"","type":"uint256","internalType":"uint256"}],"stateMutability":"nonpayable"},{"type":"event","name":"Deposited","inputs":[{"name":"user","type":"address","indexed":true,"internalType":"address"},{"name":"vaultId","type":"uint256","indexed":false,"internalType":"uint256"},{"name":"amount","type":"uint256","indexed":false,"internalType":"uint256"},{"name":"unlockTime","type":"uint256","indexed":false,"internalType":"uint256"}],"anonymous":false},{"type":"event","name":"EmergencyWithdrawn","inputs":[{"name":"owner","type":"address","indexed":true,"internalType":"address"},{"name":"amount","type":"uint256","indexed":false,"internalType":"uint256"}],"anonymous":false},{"type":"event","name":"OwnershipTransferStarted","inputs":[{"name":"previousOwner","type":"address","indexed":true,"internalType":"address"},{"name":"newOwner","type":"address","indexed":true,"internalType":"address"}],"anonymous":false},{"type":"event","name":"OwnershipTransferred","inputs":[{"name":"previousOwner","type":"address","indexed":true,"internalType":"address"},{"name":"newOwner","type":"address","indexed":true,"internalType":"address"}],"anonymous":false},{"type":"event","name":"Withdrawn","inputs":[{"name":"user","type":"address","indexed":true,"internalType":"address"},{"name":"vaultId","type":"uint256","indexed":false,"internalType":"uint256"},{"name":"amount","type":"uint256","indexed":false,"internalType":"uint256"}],"anonymous":false}],"bytecode":{"object":"0x60a060405273ce4f29b6a3955fa50b46dfdfae2f6352f16a77bb5f5f6101000a81548173ffffffffffffffffffffffffffffffffffffffff021916908373ffffffffffffffffffffffffffffffffffffffff160217905550348015610062575f5ffd5b506040516132b23803806132b2833981810160405281019061008491906101af565b8073ffffffffffffffffffffffffffffffffffffffff1660808173ffffffffffffffffffffffffffffffffffffffff1681525050335f5f6101000a81548173ffffffffffffffffffffffffffffffffffffffff021916908373ffffffffffffffffffffffffffffffffffffffff16021790555073694aa1769357215de4fac081bf1f309adc32530660025f6101000a81548173ffffffffffffffffffffffffffffffffffffffff021916908373ffffffffffffffffffffffffffffffffffffffff160217905550506101da565b5f5ffd5b5f73ffffffffffffffffffffffffffffffffffffffff82169050919050565b5f61017e82610155565b9050919050565b61018e81610174565b8114610198575f5ffd5b50565b5f815190506101a981610185565b92915050565b5f602082840312156101c4576101c3610151565b5b5f6101d18482850161019b565b91505092915050565b6080516130b26102005f395f818161081d015281816111cd0152611dd701526130b25ff3fe608060405260043610610108575f3560e01c8063b6b55f2511610094578063db2e21bc11610063578063db2e21bc1461038f578063e30c3978146103b9578063f0141d84146103e3578063f2fde38b1461040d578063fc0c546a1461043557610108565b8063b6b55f25146102cd578063bf4b1990146102e9578063d3d3819314610313578063d99d13f51461034f57610108565b806377e1296e116100db57806377e1296e146101eb57806379ba509714610227578063853828b61461023d5780638da5cb5b14610267578063a2e5437c1461029157610108565b8063129de5bf1461010c578063196e609d146101485780632e1a7d4d1461018457806357c57f72146101ac575b5f5ffd5b348015610117575f5ffd5b50610132600480360381019061012d9190611f41565b61045f565b60405161013f9190611f84565b60405180910390f35b348015610153575f5ffd5b5061016e60048036038101906101699190611fc7565b610583565b60405161017b9190611f84565b60405180910390f35b34801561018f575f5ffd5b506101aa60048036038101906101a59190611fc7565b610624565b005b3480156101b7575f5ffd5b506101d260048036038101906101cd9190611f41565b6109f6565b6040516101e294939291906120a9565b60405180910390f35b3480156101f6575f5ffd5b50610211600480360381019061020c9190611f41565b610d7b565b60405161021e9190611f84565b60405180910390f35b348015610232575f5ffd5b5061023b610dc4565b005b348015610248575f5ffd5b50610251610f53565b60405161025e9190611f84565b60405180910390f35b348015610272575f5ffd5b5061027b611357565b6040516102889190612117565b60405180910390f35b34801561029c575f5ffd5b506102b760048036038101906102b29190611f41565b61137b565b6040516102c49190612245565b60405180910390f35b6102e760048036038101906102e29190611fc7565b61144b565b005b3480156102f4575f5ffd5b506102fd611649565b60405161030a919061227d565b60405180910390f35b34801561031e575f5ffd5b5061033960048036038101906103349190611f41565b61170e565b6040516103469190611f84565b60405180910390f35b34801561035a575f5ffd5b5061037560048036038101906103709190612296565b6117d8565b6040516103869594939291906122e3565b60405180910390f35b34801561039a575f5ffd5b506103a36118f9565b6040516103b09190611f84565b60405180910390f35b3480156103c4575f5ffd5b506103cd611ad0565b6040516103da9190612117565b60405180910390f35b3480156103ee575f5ffd5b506103f7611af5565b604051610404919061234f565b60405180910390f35b348015610418575f5ffd5b50610433600480360381019061042e9190611f41565b611b8e565b005b348015610440575f5ffd5b50610449611dd5565b60405161045691906123c3565b60405180910390f35b5f5f60035f8473ffffffffffffffffffffffffffffffffffffffff1673ffffffffffffffffffffffffffffffffffffffff1681526020019081526020015f2090505f5f90505b818054905081101561057c578181815481106104c4576104c36123dc565b5b905f5260205f2090600402016003015f9054906101000a900460ff16801561050c57505f8282815481106104fb576104fa6123dc565b5b905f5260205f2090600402015f0154115b801561053a5750818181548110610526576105256123dc565b5b905f5260205f209060040201600201544210155b1561056f57818181548110610552576105516123dc565b5b905f5260205f2090600402015f01548361056c9190612436565b92505b80806001019150506104a5565b5050919050565b5f5f68056bc75e2d6310000090506105d06040518060400160405280600781526020017f726174655f5f5f0000000000000000000000000000000000000000000000000081525082611df9565b5f6105d9611649565b905061061a6040518060400160405280600981526020017f746f207061795f5f5f000000000000000000000000000000000000000000000081525082611df9565b8092505050919050565b60035f3373ffffffffffffffffffffffffffffffffffffffff1673ffffffffffffffffffffffffffffffffffffffff1681526020019081526020015f208054905081106106a6576040517f08c379a000000000000000000000000000000000000000000000000000000000815260040161069d906124c3565b60405180910390fd5b5f60035f3373ffffffffffffffffffffffffffffffffffffffff1673ffffffffffffffffffffffffffffffffffffffff1681526020019081526020015f2082815481106106f6576106f56123dc565b5b905f5260205f2090600402019050806003015f9054906101000a900460ff16610754576040517f08c379a000000000000000000000000000000000000000000000000000000000815260040161074b9061252b565b60405180910390fd5b5f815f015411610799576040517f08c379a000000000000000000000000000000000000000000000000000000000815260040161079090612593565b60405180910390fd5b80600201544210156107e0576040517f08c379a00000000000000000000000000000000000000000000000000000000081526004016107d7906125fb565b60405180910390fd5b5f815f015490505f826001015490505f835f01819055505f83600101819055505f836003015f6101000a81548160ff0219169083151502179055507f000000000000000000000000000000000000000000000000000000000000000073ffffffffffffffffffffffffffffffffffffffff166323b872dd3330846040518463ffffffff1660e01b815260040161087893929190612619565b6020604051808303815f875af1158015610894573d5f5f3e3d5ffd5b505050506040513d601f19601f820116820180604052508101906108b89190612678565b6108f7576040517f08c379a00000000000000000000000000000000000000000000000000000000081526004016108ee906126ed565b60405180910390fd5b5f3373ffffffffffffffffffffffffffffffffffffffff168360405161091c90612738565b5f6040518083038185875af1925050503d805f8114610956576040519150601f19603f3d011682016040523d82523d5f602084013e61095b565b606091505b505090508061099f576040517f08c379a000000000000000000000000000000000000000000000000000000000815260040161099690612796565b60405180910390fd5b3373ffffffffffffffffffffffffffffffffffffffff167f92ccf450a286a957af52509bc1c9939d1a6a481783e142e41e2499f0bb66ebc686856040516109e79291906127b4565b60405180910390a25050505050565b6060806060805f60035f8773ffffffffffffffffffffffffffffffffffffffff1673ffffffffffffffffffffffffffffffffffffffff1681526020019081526020015f2090505f5f90505f5f90505b8280549050811015610acd57828181548110610a6457610a636123dc565b5b905f5260205f2090600402016003015f9054906101000a900460ff168015610aac57505f838281548110610a9b57610a9a6123dc565b5b905f5260205f2090600402015f0154115b15610ac0578180610abc906127db565b9250505b8080600101915050610a45565b508067ffffffffffffffff811115610ae857610ae7612822565b5b604051908082528060200260200182016040528015610b165781602001602082028036833780820191505090505b5095508067ffffffffffffffff811115610b3357610b32612822565b5b604051908082528060200260200182016040528015610b615781602001602082028036833780820191505090505b5094508067ffffffffffffffff811115610b7e57610b7d612822565b5b604051908082528060200260200182016040528015610bac5781602001602082028036833780820191505090505b5093508067ffffffffffffffff811115610bc957610bc8612822565b5b604051908082528060200260200182016040528015610bf75781602001602082028036833780820191505090505b5092505f5f90505f5f90505b8380549050811015610d7057838181548110610c2257610c216123dc565b5b905f5260205f2090600402016003015f9054906101000a900460ff168015610c6a57505f848281548110610c5957610c586123dc565b5b905f5260205f2090600402015f0154115b15610d635780888381518110610c8357610c826123dc565b5b602002602001018181525050838181548110610ca257610ca16123dc565b5b905f5260205f2090600402015f0154878381518110610cc457610cc36123dc565b5b602002602001018181525050838181548110610ce357610ce26123dc565b5b905f5260205f20906004020160010154868381518110610d0657610d056123dc565b5b602002602001018181525050838181548110610d2557610d246123dc565b5b905f5260205f20906004020160020154858381518110610d4857610d476123dc565b5b6020026020010181815250508180610d5f906127db565b9250505b8080600101915050610c03565b505050509193509193565b5f60035f8373ffffffffffffffffffffffffffffffffffffffff1673ffffffffffffffffffffffffffffffffffffffff1681526020019081526020015f20805490509050919050565b60015f9054906101000a900473ffffffffffffffffffffffffffffffffffffffff1673ffffffffffffffffffffffffffffffffffffffff163373ffffffffffffffffffffffffffffffffffffffff1614610e53576040517f08c379a0000000000000000000000000000000000000000000000000000000008152600401610e4a90612899565b60405180910390fd5b5f5f5f9054906101000a900473ffffffffffffffffffffffffffffffffffffffff169050335f5f6101000a81548173ffffffffffffffffffffffffffffffffffffffff021916908373ffffffffffffffffffffffffffffffffffffffff1602179055505f60015f6101000a81548173ffffffffffffffffffffffffffffffffffffffff021916908373ffffffffffffffffffffffffffffffffffffffff1602179055503373ffffffffffffffffffffffffffffffffffffffff168173ffffffffffffffffffffffffffffffffffffffff167f8be0079c531659141344cd1fd0a4f28419497f9722a3daafe3b4186f6b6457e060405160405180910390a350565b5f5f5f90505f5f90505f60035f3373ffffffffffffffffffffffffffffffffffffffff1673ffffffffffffffffffffffffffffffffffffffff1681526020019081526020015f2090505f5f90505b818054905081101561118857818181548110610fc057610fbf6123dc565b5b905f5260205f2090600402016003015f9054906101000a900460ff16801561100857505f828281548110610ff757610ff66123dc565b5b905f5260205f2090600402015f0154115b80156110365750818181548110611022576110216123dc565b5b905f5260205f209060040201600201544210155b1561117b575f82828154811061104f5761104e6123dc565b5b905f5260205f2090600402015f015490505f838381548110611074576110736123dc565b5b905f5260205f2090600402016001015490505f84848154811061109a576110996123dc565b5b905f5260205f2090600402015f01819055505f8484815481106110c0576110bf6123dc565b5b905f5260205f209060040201600101819055505f8484815481106110e7576110e66123dc565b5b905f5260205f2090600402016003015f6101000a81548160ff02191690831515021790555081866111189190612436565b955080856111269190612436565b94503373ffffffffffffffffffffffffffffffffffffffff167f92ccf450a286a957af52509bc1c9939d1a6a481783e142e41e2499f0bb66ebc684846040516111709291906127b4565b60405180910390a250505b8080600101915050610fa1565b505f83116111cb576040517f08c379a00000000000000000000000000000000000000000000000000000000081526004016111c290612901565b60405180910390fd5b7f000000000000000000000000000000000000000000000000000000000000000073ffffffffffffffffffffffffffffffffffffffff1663a9059cbb33846040518363ffffffff1660e01b815260040161122692919061291f565b6020604051808303815f875af1158015611242573d5f5f3e3d5ffd5b505050506040513d601f19601f820116820180604052508101906112669190612678565b6112a5576040517f08c379a000000000000000000000000000000000000000000000000000000000815260040161129c906126ed565b60405180910390fd5b5f3373ffffffffffffffffffffffffffffffffffffffff16846040516112ca90612738565b5f6040518083038185875af1925050503d805f8114611304576040519150601f19603f3d011682016040523d82523d5f602084013e611309565b606091505b505090508061134d576040517f08c379a000000000000000000000000000000000000000000000000000000000815260040161134490612796565b60405180910390fd5b8394505050505090565b5f5f9054906101000a900473ffffffffffffffffffffffffffffffffffffffff1681565b606060035f8373ffffffffffffffffffffffffffffffffffffffff1673ffffffffffffffffffffffffffffffffffffffff1681526020019081526020015f20805480602002602001604051908101604052809291908181526020015f905b82821015611440578382905f5260205f2090600402016040518060800160405290815f82015481526020016001820154815260200160028201548152602001600382015f9054906101000a900460ff161515151581525050815260200190600101906113d9565b505050509050919050565b5f61145534610583565b9050606481101561149b576040517f08c379a0000000000000000000000000000000000000000000000000000000008152600401611492906129b6565b60405180910390fd5b4282116114dd576040517f08c379a00000000000000000000000000000000000000000000000000000000081526004016114d490612a44565b60405180910390fd5b60035f3373ffffffffffffffffffffffffffffffffffffffff1673ffffffffffffffffffffffffffffffffffffffff1681526020019081526020015f2060405180608001604052803481526020016001815260200184815260200160011515815250908060018154018082558091505060019003905f5260205f2090600402015f909190919091505f820151815f015560208201518160010155604082015181600201556060820151816003015f6101000a81548160ff02191690831515021790555050505f600160035f3373ffffffffffffffffffffffffffffffffffffffff1673ffffffffffffffffffffffffffffffffffffffff1681526020019081526020015f20805490506115f09190612a62565b90503373ffffffffffffffffffffffffffffffffffffffff167f91ede45f04a37a7c170f5c1207df3b6bc748dc1e04ad5e917a241d0f52feada382348660405161163c93929190612a95565b60405180910390a2505050565b5f5f60025f9054906101000a900473ffffffffffffffffffffffffffffffffffffffff1673ffffffffffffffffffffffffffffffffffffffff1663feaf968c6040518163ffffffff1660e01b815260040160a060405180830381865afa1580156116b5573d5f5f3e3d5ffd5b505050506040513d601f19601f820116820180604052508101906116d99190612b47565b5050509150505f6116e8611af5565b90505f81600a6116f89190612ced565b836117039190612d64565b905080935050505090565b5f5f60035f8473ffffffffffffffffffffffffffffffffffffffff1673ffffffffffffffffffffffffffffffffffffffff1681526020019081526020015f2090505f5f90505b81805490508110156117d157818181548110611773576117726123dc565b5b905f5260205f2090600402016003015f9054906101000a900460ff16156117c4578181815481106117a7576117a66123dc565b5b905f5260205f2090600402015f0154836117c19190612436565b92505b8080600101915050611754565b5050919050565b5f5f5f5f5f60035f8873ffffffffffffffffffffffffffffffffffffffff1673ffffffffffffffffffffffffffffffffffffffff1681526020019081526020015f2080549050861061185f576040517f08c379a0000000000000000000000000000000000000000000000000000000008152600401611856906124c3565b60405180910390fd5b5f60035f8973ffffffffffffffffffffffffffffffffffffffff1673ffffffffffffffffffffffffffffffffffffffff1681526020019081526020015f2087815481106118af576118ae6123dc565b5b905f5260205f2090600402019050805f015481600101548260020154836003015f9054906101000a900460ff16846002015442101595509550955095509550509295509295909350565b5f5f5f9054906101000a900473ffffffffffffffffffffffffffffffffffffffff1673ffffffffffffffffffffffffffffffffffffffff163373ffffffffffffffffffffffffffffffffffffffff1614611988576040517f08c379a000000000000000000000000000000000000000000000000000000000815260040161197f90612e16565b60405180910390fd5b4790505f81116119cd576040517f08c379a00000000000000000000000000000000000000000000000000000000081526004016119c490612e7e565b60405180910390fd5b5f5f5f9054906101000a900473ffffffffffffffffffffffffffffffffffffffff1673ffffffffffffffffffffffffffffffffffffffff1682604051611a1290612738565b5f6040518083038185875af1925050503d805f8114611a4c576040519150601f19603f3d011682016040523d82523d5f602084013e611a51565b606091505b5050905080611a5e575f5ffd5b5f5f9054906101000a900473ffffffffffffffffffffffffffffffffffffffff1673ffffffffffffffffffffffffffffffffffffffff167f2e39961a70a10f4d46383948095ac2752b3ee642a7c76aa827410aaff08c2e5183604051611ac49190611f84565b60405180910390a25090565b60015f9054906101000a900473ffffffffffffffffffffffffffffffffffffffff1681565b5f5f60025f9054906101000a900473ffffffffffffffffffffffffffffffffffffffff1673ffffffffffffffffffffffffffffffffffffffff1663313ce5676040518163ffffffff1660e01b8152600401602060405180830381865afa158015611b61573d5f5f3e3d5ffd5b505050506040513d601f19601f82011682018060405250810190611b859190612ec6565b90508091505090565b5f5f9054906101000a900473ffffffffffffffffffffffffffffffffffffffff1673ffffffffffffffffffffffffffffffffffffffff163373ffffffffffffffffffffffffffffffffffffffff1614611c1c576040517f08c379a0000000000000000000000000000000000000000000000000000000008152600401611c1390612e16565b60405180910390fd5b5f73ffffffffffffffffffffffffffffffffffffffff168173ffffffffffffffffffffffffffffffffffffffff1603611c8a576040517f08c379a0000000000000000000000000000000000000000000000000000000008152600401611c8190612f3b565b60405180910390fd5b5f5f9054906101000a900473ffffffffffffffffffffffffffffffffffffffff1673ffffffffffffffffffffffffffffffffffffffff168173ffffffffffffffffffffffffffffffffffffffff1603611d18576040517f08c379a0000000000000000000000000000000000000000000000000000000008152600401611d0f90612fa3565b60405180910390fd5b8060015f6101000a81548173ffffffffffffffffffffffffffffffffffffffff021916908373ffffffffffffffffffffffffffffffffffffffff1602179055508073ffffffffffffffffffffffffffffffffffffffff165f5f9054906101000a900473ffffffffffffffffffffffffffffffffffffffff1673ffffffffffffffffffffffffffffffffffffffff167f38d16b8cac22d99fc7c124b9cd0de2d3fa1faef420bfe791d8c362d765e2270060405160405180910390a350565b7f000000000000000000000000000000000000000000000000000000000000000081565b611e918282604051602401611e0f929190613021565b6040516020818303038152906040527fb60e72cc000000000000000000000000000000000000000000000000000000007bffffffffffffffffffffffffffffffffffffffffffffffffffffffff19166020820180517bffffffffffffffffffffffffffffffffffffffffffffffffffffffff8381831617835250505050611e95565b5050565b611eac81611ea4611eaf611ece565b63ffffffff16565b50565b5f6a636f6e736f6c652e6c6f6790505f5f835160208501845afa505050565b611ed9819050919050565b611ee161304f565b565b5f5ffd5b5f73ffffffffffffffffffffffffffffffffffffffff82169050919050565b5f611f1082611ee7565b9050919050565b611f2081611f06565b8114611f2a575f5ffd5b50565b5f81359050611f3b81611f17565b92915050565b5f60208284031215611f5657611f55611ee3565b5b5f611f6384828501611f2d565b91505092915050565b5f819050919050565b611f7e81611f6c565b82525050565b5f602082019050611f975f830184611f75565b92915050565b611fa681611f6c565b8114611fb0575f5ffd5b50565b5f81359050611fc181611f9d565b92915050565b5f60208284031215611fdc57611fdb611ee3565b5b5f611fe984828501611fb3565b91505092915050565b5f81519050919050565b5f82825260208201905092915050565b5f819050602082019050919050565b61202481611f6c565b82525050565b5f612035838361201b565b60208301905092915050565b5f602082019050919050565b5f61205782611ff2565b6120618185611ffc565b935061206c8361200c565b805f5b8381101561209c578151612083888261202a565b975061208e83612041565b92505060018101905061206f565b5085935050505092915050565b5f6080820190508181035f8301526120c1818761204d565b905081810360208301526120d5818661204d565b905081810360408301526120e9818561204d565b905081810360608301526120fd818461204d565b905095945050505050565b61211181611f06565b82525050565b5f60208201905061212a5f830184612108565b92915050565b5f81519050919050565b5f82825260208201905092915050565b5f819050602082019050919050565b5f8115159050919050565b61216d81612159565b82525050565b608082015f8201516121875f85018261201b565b50602082015161219a602085018261201b565b5060408201516121ad604085018261201b565b5060608201516121c06060850182612164565b50505050565b5f6121d18383612173565b60808301905092915050565b5f602082019050919050565b5f6121f382612130565b6121fd818561213a565b93506122088361214a565b805f5b8381101561223857815161221f88826121c6565b975061222a836121dd565b92505060018101905061220b565b5085935050505092915050565b5f6020820190508181035f83015261225d81846121e9565b905092915050565b5f819050919050565b61227781612265565b82525050565b5f6020820190506122905f83018461226e565b92915050565b5f5f604083850312156122ac576122ab611ee3565b5b5f6122b985828601611f2d565b92505060206122ca85828601611fb3565b9150509250929050565b6122dd81612159565b82525050565b5f60a0820190506122f65f830188611f75565b6123036020830187611f75565b6123106040830186611f75565b61231d60608301856122d4565b61232a60808301846122d4565b9695505050505050565b5f60ff82169050919050565b61234981612334565b82525050565b5f6020820190506123625f830184612340565b92915050565b5f819050919050565b5f61238b61238661238184611ee7565b612368565b611ee7565b9050919050565b5f61239c82612371565b9050919050565b5f6123ad82612392565b9050919050565b6123bd816123a3565b82525050565b5f6020820190506123d65f8301846123b4565b92915050565b7f4e487b71000000000000000000000000000000000000000000000000000000005f52603260045260245ffd5b7f4e487b71000000000000000000000000000000000000000000000000000000005f52601160045260245ffd5b5f61244082611f6c565b915061244b83611f6c565b925082820190508082111561246357612462612409565b5b92915050565b5f82825260208201905092915050565b7f496e76616c6964207661756c74204944000000000000000000000000000000005f82015250565b5f6124ad601083612469565b91506124b882612479565b602082019050919050565b5f6020820190508181035f8301526124da816124a1565b9050919050565b7f5661756c74206973206e6f7420616374697665000000000000000000000000005f82015250565b5f612515601383612469565b9150612520826124e1565b602082019050919050565b5f6020820190508181035f83015261254281612509565b9050919050565b7f5661756c7420686173207a65726f2062616c616e6365000000000000000000005f82015250565b5f61257d601683612469565b915061258882612549565b602082019050919050565b5f6020820190508181035f8301526125aa81612571565b9050919050565b7f46756e647320617265207374696c6c206c6f636b6564000000000000000000005f82015250565b5f6125e5601683612469565b91506125f0826125b1565b602082019050919050565b5f6020820190508181035f830152612612816125d9565b9050919050565b5f60608201905061262c5f830186612108565b6126396020830185612108565b6126466040830184611f75565b949350505050565b61265781612159565b8114612661575f5ffd5b50565b5f815190506126728161264e565b92915050565b5f6020828403121561268d5761268c611ee3565b5b5f61269a84828501612664565b91505092915050565b7f546f6b656e207472616e73666572206661696c656400000000000000000000005f82015250565b5f6126d7601583612469565b91506126e2826126a3565b602082019050919050565b5f6020820190508181035f830152612704816126cb565b9050919050565b5f81905092915050565b50565b5f6127235f8361270b565b915061272e82612715565b5f82019050919050565b5f61274282612718565b9150819050919050565b7f5472616e73666572206661696c656400000000000000000000000000000000005f82015250565b5f612780600f83612469565b915061278b8261274c565b602082019050919050565b5f6020820190508181035f8301526127ad81612774565b9050919050565b5f6040820190506127c75f830185611f75565b6127d46020830184611f75565b9392505050565b5f6127e582611f6c565b91507fffffffffffffffffffffffffffffffffffffffffffffffffffffffffffffffff820361281757612816612409565b5b600182019050919050565b7f4e487b71000000000000000000000000000000000000000000000000000000005f52604160045260245ffd5b7f4e6f742070656e64696e67206f776e65720000000000000000000000000000005f82015250565b5f612883601183612469565b915061288e8261284f565b602082019050919050565b5f6020820190508181035f8301526128b081612877565b9050919050565b7f4e6f20756e6c6f636b65642066756e647320617661696c61626c6500000000005f82015250565b5f6128eb601b83612469565b91506128f6826128b7565b602082019050919050565b5f6020820190508181035f830152612918816128df565b9050919050565b5f6040820190506129325f830185612108565b61293f6020830184611f75565b9392505050565b7f796f75206d757374206465706f736974203130302055534420776f727468206f5f8201527f6620455448000000000000000000000000000000000000000000000000000000602082015250565b5f6129a0602583612469565b91506129ab82612946565b604082019050919050565b5f6020820190508181035f8301526129cd81612994565b9050919050565b7f556e6c6f636b2074696d65206d75737420626520696e207468652066757475725f8201527f6500000000000000000000000000000000000000000000000000000000000000602082015250565b5f612a2e602183612469565b9150612a39826129d4565b604082019050919050565b5f6020820190508181035f830152612a5b81612a22565b9050919050565b5f612a6c82611f6c565b9150612a7783611f6c565b9250828203905081811115612a8f57612a8e612409565b5b92915050565b5f606082019050612aa85f830186611f75565b612ab56020830185611f75565b612ac26040830184611f75565b949350505050565b5f69ffffffffffffffffffff82169050919050565b612ae881612aca565b8114612af2575f5ffd5b50565b5f81519050612b0381612adf565b92915050565b612b1281612265565b8114612b1c575f5ffd5b50565b5f81519050612b2d81612b09565b92915050565b5f81519050612b4181611f9d565b92915050565b5f5f5f5f5f60a08688031215612b6057612b5f611ee3565b5b5f612b6d88828901612af5565b9550506020612b7e88828901612b1f565b9450506040612b8f88828901612b33565b9350506060612ba088828901612b33565b9250506080612bb188828901612af5565b9150509295509295909350565b5f8160011c9050919050565b5f5f8291508390505b6001851115612c1357808604811115612bef57612bee612409565b5b6001851615612bfe5780820291505b8081029050612c0c85612bbe565b9450612bd3565b94509492505050565b5f82612c2b5760019050612ce6565b81612c38575f9050612ce6565b8160018114612c4e5760028114612c5857612c87565b6001915050612ce6565b60ff841115612c6a57612c69612409565b5b8360020a915084821115612c8157612c80612409565b5b50612ce6565b5060208310610133831016604e8410600b8410161715612cbc5782820a905083811115612cb757612cb6612409565b5b612ce6565b612cc98484846001612bca565b92509050818404811115612ce057612cdf612409565b5b81810290505b9392505050565b5f612cf782611f6c565b9150612d0283612334565b9250612d2f7fffffffffffffffffffffffffffffffffffffffffffffffffffffffffffffffff8484612c1c565b905092915050565b7f4e487b71000000000000000000000000000000000000000000000000000000005f52601260045260245ffd5b5f612d6e82612265565b9150612d7983612265565b925082612d8957612d88612d37565b5b60015f0383147f800000000000000000000000000000000000000000000000000000000000000083141615612dc157612dc0612409565b5b828205905092915050565b7f4e6f74206f776e657200000000000000000000000000000000000000000000005f82015250565b5f612e00600983612469565b9150612e0b82612dcc565b602082019050919050565b5f6020820190508181035f830152612e2d81612df4565b9050919050565b7f4e6f2066756e647320617661696c61626c6500000000000000000000000000005f82015250565b5f612e68601283612469565b9150612e7382612e34565b602082019050919050565b5f6020820190508181035f830152612e9581612e5c565b9050919050565b612ea581612334565b8114612eaf575f5ffd5b50565b5f81519050612ec081612e9c565b92915050565b5f60208284031215612edb57612eda611ee3565b5b5f612ee884828501612eb2565b91505092915050565b7f4e6577206f776e6572206973207a65726f2061646472657373000000000000005f82015250565b5f612f25601983612469565b9150612f3082612ef1565b602082019050919050565b5f6020820190508181035f830152612f5281612f19565b9050919050565b7f4e6577206f776e65722069732063757272656e74206f776e65720000000000005f82015250565b5f612f8d601a83612469565b9150612f9882612f59565b602082019050919050565b5f6020820190508181035f830152612fba81612f81565b9050919050565b5f81519050919050565b8281835e5f83830152505050565b5f601f19601f8301169050919050565b5f612ff382612fc1565b612ffd8185612469565b935061300d818560208601612fcb565b61301681612fd9565b840191505092915050565b5f6040820190508181035f8301526130398185612fe9565b90506130486020830184611f75565b9392505050565b7f4e487b71000000000000000000000000000000000000000000000000000000005f52605160045260245ffdfea2646970667358221220b933e06ebe90fd6103e0097a5d1fe9ca62801b0e88da5997b49eb7f3398df7cc64736f6c634300081c0033","linkReferences":{}},"methodIdentifiers":{"acceptOwnership()":"79ba5097","deposit(uint256)":"b6b55f25","emergencyWithdraw()":"db2e21bc","ethToUSD(uint256)":"196e609d","getActiveVaults(address)":"57c57f72","getAllVaults(address)":"a2e5437c","getDecimals()":"f0141d84","getETHUSDPrice()":"bf4b1990","getTotalBalance(address)":"d3d38193","getUnlockedBalance(address)":"129de5bf","getVault(address,uint256)":"d99d13f5","getVaultCount(address)":"77e1296e","owner()":"8da5cb5b","pendingOwner()":"e30c3978","token()":"fc0c546a","transferOwnership(address)":"f2fde38b","withdraw(uint256)":"2e1a7d4d","withdrawAll()":"853828b6"},"id":21}