{"abi":[{"type":"constructor","inputs":[],"stateMutability":"nonpayable"},{"type":"function","name":"approvedCallers","inputs":[{"name":"","type":"address","internalType":"address"}],"outputs":[{"name":"","type":"bool","internalType":"bool"}],"stateMutability":"view"},{"type":"function","name":"grantPrivilege","inputs":[{"name":"caller","type":"address","internalType":"address"}],"outputs":[],"stateMutability":"nonpayable"},{"type":"function","name":"increment","inputs":[],"outputs":[],"stateMutability":"nonpayable"},{"type":"function","name":"number","inputs":[],"outputs":[{"name":"","type":"uint256","internalType":"uint256"}],"stateMutability":"view"},{"type":"function","name":"owner","inputs":[],"outputs":[{"name":"","type":"address","internalType":"address"}],"stateMutability":"view"},{"type":"function","name":"pendingApproval","inputs":[{"name":"","type":"address","internalType":"address"}],"outputs":[{"name":"","type":"bool","internalType":"bool"}],"stateMutability":"view"},{"type":"function","name":"requestPrivilege","inputs":[],"outputs":[],"stateMutability":"nonpayable"},{"type":"function","name":"revokePrivilege","inputs":[{"name":"caller","type":"address","internalType":"address"}],"outputs":[],"stateMutability":"nonpayable"},{"type":"function","name":"setNumber","inputs":[{"name":"newNumber","type":"uint256","internalType":"uint256"}],"outputs":[],"stateMutability":"nonpayable"},{"type":"event","name":"ApprovalGranted","inputs":[{"name":"caller","type":"address","indexed":true,"internalType":"address"}],"anonymous":false},{"type":"event","name":"ApprovalRequested","inputs":[{"name":"caller","type":"address","indexed":true,"internalType":"address"}],"anonymous":false},{"type":"event","name":"ApprovalRevoked","inputs":[{"name":"caller","type":"address","indexed":true,"internalType":"address"}],"anonymous":false}],"bytecode":{"object":"0x6080604052348015600e575f5ffd5b503360015f6101000a81548173ffffffffffffffffffffffffffffffffffffffff021916908373ffffffffffffffffffffffffffffffffffffffff160217905550610ce88061005c5f395ff3fe608060405234801561000f575f5ffd5b5060043610610091575f3560e01c80638381f58a116100645780638381f58a146100f35780638da5cb5b1461011157806397475fbd1461012f578063a71975af1461015f578063d09de08a1461018f57610091565b80632c12d335146100955780633fb5c1cb1461009f57806342b735e6146100bb5780636fe99db2146100d7575b5f5ffd5b61009d610199565b005b6100b960048036038101906100b491906108f3565b6102c2565b005b6100d560048036038101906100d09190610978565b6103a9565b005b6100f160048036038101906100ec9190610978565b6105b0565b005b6100fb610762565b60405161010891906109b2565b60405180910390f35b610119610767565b60405161012691906109da565b60405180910390f35b61014960048036038101906101449190610978565b61078c565b6040516101569190610a0d565b60405180910390f35b61017960048036038101906101749190610978565b6107a9565b6040516101869190610a0d565b60405180910390f35b6101976107c6565b005b60015f9054906101000a900473ffffffffffffffffffffffffffffffffffffffff1673ffffffffffffffffffffffffffffffffffffffff163373ffffffffffffffffffffffffffffffffffffffff1603610228576040517f08c379a000000000000000000000000000000000000000000000000000000000815260040161021f90610a80565b60405180910390fd5b600160035f3373ffffffffffffffffffffffffffffffffffffffff1673ffffffffffffffffffffffffffffffffffffffff1681526020019081526020015f205f6101000a81548160ff0219169083151502179055503373ffffffffffffffffffffffffffffffffffffffff167fdcef5e0f5751f0caf9d03f730740c6ee8f1ca13a020aa793159f4e424c01834f60405160405180910390a2565b60015f9054906101000a900473ffffffffffffffffffffffffffffffffffffffff1673ffffffffffffffffffffffffffffffffffffffff163373ffffffffffffffffffffffffffffffffffffffff16146103a05760025f3373ffffffffffffffffffffffffffffffffffffffff1673ffffffffffffffffffffffffffffffffffffffff1681526020019081526020015f205f9054906101000a900460ff1661039f576040517f08c379a000000000000000000000000000000000000000000000000000000000815260040161039690610ae8565b60405180910390fd5b5b805f8190555050565b60015f9054906101000a900473ffffffffffffffffffffffffffffffffffffffff1673ffffffffffffffffffffffffffffffffffffffff163373ffffffffffffffffffffffffffffffffffffffff1614610438576040517f08c379a000000000000000000000000000000000000000000000000000000000815260040161042f90610b50565b60405180910390fd5b60035f8273ffffffffffffffffffffffffffffffffffffffff1673ffffffffffffffffffffffffffffffffffffffff1681526020019081526020015f205f9054906101000a900460ff166104c1576040517f08c379a00000000000000000000000000000000000000000000000000000000081526004016104b890610bb8565b60405180910390fd5b600160025f8373ffffffffffffffffffffffffffffffffffffffff1673ffffffffffffffffffffffffffffffffffffffff1681526020019081526020015f205f6101000a81548160ff0219169083151502179055505f60035f8373ffffffffffffffffffffffffffffffffffffffff1673ffffffffffffffffffffffffffffffffffffffff1681526020019081526020015f205f6101000a81548160ff0219169083151502179055508073ffffffffffffffffffffffffffffffffffffffff167f53ae258b2d6c1fdf56bc4dbdd5c07df4d7c07a3595b3ce653d7418f7c651c03c60405160405180910390a250565b60015f9054906101000a900473ffffffffffffffffffffffffffffffffffffffff1673ffffffffffffffffffffffffffffffffffffffff163373ffffffffffffffffffffffffffffffffffffffff161461063f576040517f08c379a000000000000000000000000000000000000000000000000000000000815260040161063690610b50565b60405180910390fd5b60025f8273ffffffffffffffffffffffffffffffffffffffff1673ffffffffffffffffffffffffffffffffffffffff1681526020019081526020015f205f9054906101000a900460ff166106c8576040517f08c379a00000000000000000000000000000000000000000000000000000000081526004016106bf90610c20565b60405180910390fd5b5f60025f8373ffffffffffffffffffffffffffffffffffffffff1673ffffffffffffffffffffffffffffffffffffffff1681526020019081526020015f205f6101000a81548160ff0219169083151502179055508073ffffffffffffffffffffffffffffffffffffffff167fb9d372ca98fcaccd93b1d0e8a23b184901314fb7f610fb82ba911d094c4c2e7660405160405180910390a250565b5f5481565b60015f9054906101000a900473ffffffffffffffffffffffffffffffffffffffff1681565b6003602052805f5260405f205f915054906101000a900460ff1681565b6002602052805f5260405f205f915054906101000a900460ff1681565b60015f9054906101000a900473ffffffffffffffffffffffffffffffffffffffff1673ffffffffffffffffffffffffffffffffffffffff163373ffffffffffffffffffffffffffffffffffffffff16146108a45760025f3373ffffffffffffffffffffffffffffffffffffffff1673ffffffffffffffffffffffffffffffffffffffff1681526020019081526020015f205f9054906101000a900460ff166108a3576040517f08c379a000000000000000000000000000000000000000000000000000000000815260040161089a90610ae8565b60405180910390fd5b5b5f5f8154809291906108b590610c6b565b9190505550565b5f5ffd5b5f819050919050565b6108d2816108c0565b81146108dc575f5ffd5b50565b5f813590506108ed816108c9565b92915050565b5f60208284031215610908576109076108bc565b5b5f610915848285016108df565b91505092915050565b5f73ffffffffffffffffffffffffffffffffffffffff82169050919050565b5f6109478261091e565b9050919050565b6109578161093d565b8114610961575f5ffd5b50565b5f813590506109728161094e565b92915050565b5f6020828403121561098d5761098c6108bc565b5b5f61099a84828501610964565b91505092915050565b6109ac816108c0565b82525050565b5f6020820190506109c55f8301846109a3565b92915050565b6109d48161093d565b82525050565b5f6020820190506109ed5f8301846109cb565b92915050565b5f8115159050919050565b610a07816109f3565b82525050565b5f602082019050610a205f8301846109fe565b92915050565b5f82825260208201905092915050565b7f4f776e657220646f6573206e6f74206e65656420636f6e73656e7400000000005f82015250565b5f610a6a601b83610a26565b9150610a7582610a36565b602082019050919050565b5f6020820190508181035f830152610a9781610a5e565b9050919050565b7f4f776e657220636f6e73656e74207265717569726564000000000000000000005f82015250565b5f610ad2601683610a26565b9150610add82610a9e565b602082019050919050565b5f6020820190508181035f830152610aff81610ac6565b9050919050565b7f4e6f74206f776e657200000000000000000000000000000000000000000000005f82015250565b5f610b3a600983610a26565b9150610b4582610b06565b602082019050919050565b5f6020820190508181035f830152610b6781610b2e565b9050919050565b7f4e6f2070656e64696e67207265717565737400000000000000000000000000005f82015250565b5f610ba2601283610a26565b9150610bad82610b6e565b602082019050919050565b5f6020820190508181035f830152610bcf81610b96565b9050919050565b7f43616c6c6572206e6f7420617070726f766564000000000000000000000000005f82015250565b5f610c0a601383610a26565b9150610c1582610bd6565b602082019050919050565b5f6020820190508181035f830152610c3781610bfe565b9050919050565b7f4e487b71000000000000000000000000000000000000000000000000000000005f52601160045260245ffd5b5f610c75826108c0565b91507fffffffffffffffffffffffffffffffffffffffffffffffffffffffffffffffff8203610ca757610ca6610c3e565b5b60018201905091905056fea2646970667358221220fdc2af60006b5d2503c463b2bb7d93814e5556d8b1dbebade313d3462a13952664736f6c634300081c0033","linkReferences":{}},"methodIdentifiers":{"approvedCallers(address)":"a71975af","grantPrivilege(address)":"42b735e6","increment()":"d09de08a","number()":"8381f58a","owner()":"8da5cb5b","pendingApproval(address)":"97475fbd","requestPrivilege()":"2c12d335","revokePrivilege(address)":"6fe99db2","setNumber(uint256)":"3fb5c1cb"},"id":27}