{"abi":[{"type":"constructor","inputs":[{"name":"recipient","type":"address","internalType":"address"},{"name":"initialOwner","type":"address","internalType":"address"}],"stateMutability":"nonpayable"},{"type":"function","name":"allowance","inputs":[{"name":"owner","type":"address","internalType":"address"},{"name":"spender","type":"address","internalType":"address"}],"outputs":[{"name":"","type":"uint256","internalType":"uint256"}],"stateMutability":"view"},{"type":"function","name":"approve","inputs":[{"name":"spender","type":"address","internalType":"address"},{"name":"value","type":"uint256","internalType":"uint256"}],"outputs":[{"name":"","type":"bool","internalType":"bool"}],"stateMutability":"nonpayable"},{"type":"function","name":"balanceOf","inputs":[{"name":"account","type":"address","internalType":"address"}],"outputs":[{"name":"","type":"uint256","internalType":"uint256"}],"stateMutability":"view"},{"type":"function","name":"burn","inputs":[{"name":"value","type":"uint256","internalType":"uint256"}],"outputs":[],"stateMutability":"nonpayable"},{"type":"function","name":"burnFrom","inputs":[{"name":"account","type":"address","internalType":"address"},{"name":"value","type":"uint256","internalType":"uint256"}],"outputs":[],"stateMutability":"nonpayable"},{"type":"function","name":"decimals","inputs":[],"outputs":[{"name":"","type":"uint8","internalType":"uint8"}],"stateMutability":"view"},{"type":"function","name":"mint","inputs":[{"name":"to","type":"address","internalType":"address"},{"name":"amount","type":"uint256","internalType":"uint256"}],"outputs":[],"stateMutability":"nonpayable"},{"type":"function","name":"name","inputs":[],"outputs":[{"name":"","type":"string","internalType":"string"}],"stateMutability":"view"},{"type":"function","name":"owner","inputs":[],"outputs":[{"name":"","type":"address","internalType":"address"}],"stateMutability":"view"},{"type":"function","name":"renounceOwnership","inputs":[],"outputs":[],"stateMutability":"nonpayable"},{"type":"function","name":"symbol","inputs":[],"outputs":[{"name":"","type":"string","internalType":"string"}],"stateMutability":"view"},{"type":"function","name":"totalSupply","inputs":[],"outputs":[{"name":"","type":"uint256","internalType":"uint256"}],"stateMutability":"view"},{"type":"function","name":"transfer","inputs":[{"name":"to","type":"address","internalType":"address"},{"name":"value","type":"uint256","internalType":"uint256"}],"outputs":[{"name":"","type":"bool","internalType":"bool"}],"stateMutability":"nonpayable"},{"type":"function","name":"transferFrom","inputs":[{"name":"from","type":"address","internalType":"address"},{"name":"to","type":"address","internalType":"address"},{"name":"value","type":"uint256","internalType":"uint256"}],"outputs":[{"name":"","type":"bool","internalType":"bool"}],"stateMutability":"nonpayable"},{"type":"function","name":"transferOwnership","inputs":[{"name":"newOwner","type":"address","internalType":"address"}],"outputs":[],"stateMutability":"nonpayable"},{"type":"event","name":"Approval","inputs":[{"name":"owner","type":"address","indexed":true,"internalType":"address"},{"name":"spender","type":"address","indexed":true,"internalType":"address"},{"name":"value","type":"uint256","indexed":false,"internalType":"uint256"}],"anonymous":false},{"type":"event","name":"OwnershipTransferred","inputs":[{"name":"previousOwner","type":"address","indexed":true,"internalType":"address"},{"name":"newOwner","type":"address","indexed":true,"internalType":"address"}],"anonymous":false},{"type":"event","name":"Transfer","inputs":[{"name":"from","type":"address","indexed":true,"internalType":"address"},{"name":"to","type":"address","indexed":true,"internalType":"address"},{"name":"value","type":"uint256","indexed":false,"internalType":"uint256"}],"anonymous":false},{"type":"error","name":"ERC20InsufficientAllowance","inputs":[{"name":"spender","type":"address","internalType":"address"},{"name":"allowance","type":"uint256","internalType":"uint256"},{"name":"needed","type":"uint256","internalType":"uint256"}]},{"type":"error","name":"ERC20InsufficientBalance","inputs":[{"name":"sender","type":"address","internalType":"address"},{"name":"balance","type":"uint256","internalType":"uint256"},{"name":"needed","type":"uint256","internalType":"uint256"}]},{"type":"error","name":"ERC20InvalidApprover","inputs":[{"name":"approver","type":"address","internalType":"address"}]},{"type":"error","name":"ERC20InvalidReceiver","inputs":[{"name":"receiver","type":"address","internalType":"address"}]},{"type":"error","name":"ERC20InvalidSender","inputs":[{"name":"sender","type":"address","internalType":"address"}]},{"type":"error","name":"ERC20InvalidSpender","inputs":[{"name":"spender","type":"address","internalType":"address"}]},{"type":"error","name":"OwnableInvalidOwner","inputs":[{"name":"owner","type":"address","internalType":"address"}]},{"type":"error","name":"OwnableUnauthorizedAccount","inputs":[{"name":"account","type":"address","internalType":"address"}]}],"bytecode":{"object":"0x608060405234801561000f575f5ffd5b50604051611d9d380380611d9d83398181016040528101906100319190610544565b806040518060400160405280600a81526020017f4a61736f6e546f6b656e000000000000000000000000000000000000000000008152506040518060400160405280600381526020017f4a4b42000000000000000000000000000000000000000000000000000000000081525081600390816100ad91906107bf565b5080600490816100bd91906107bf565b5050505f73ffffffffffffffffffffffffffffffffffffffff168173ffffffffffffffffffffffffffffffffffffffff1603610130575f6040517f1e4fbdf7000000000000000000000000000000000000000000000000000000008152600401610127919061089d565b60405180910390fd5b61013f8161017d60201b60201c565b506101768261015261024060201b60201c565b600a61015e9190610a1e565b6103e861016b9190610a68565b61024860201b60201c565b5050610b39565b5f60055f9054906101000a900473ffffffffffffffffffffffffffffffffffffffff1690508160055f6101000a81548173ffffffffffffffffffffffffffffffffffffffff021916908373ffffffffffffffffffffffffffffffffffffffff1602179055508173ffffffffffffffffffffffffffffffffffffffff168173ffffffffffffffffffffffffffffffffffffffff167f8be0079c531659141344cd1fd0a4f28419497f9722a3daafe3b4186f6b6457e060405160405180910390a35050565b5f6012905090565b5f73ffffffffffffffffffffffffffffffffffffffff168273ffffffffffffffffffffffffffffffffffffffff16036102b8575f6040517fec442f050000000000000000000000000000000000000000000000000000000081526004016102af919061089d565b60405180910390fd5b6102c95f83836102cd60201b60201c565b5050565b5f73ffffffffffffffffffffffffffffffffffffffff168373ffffffffffffffffffffffffffffffffffffffff160361031d578060025f8282546103119190610aa9565b925050819055506103eb565b5f5f5f8573ffffffffffffffffffffffffffffffffffffffff1673ffffffffffffffffffffffffffffffffffffffff1681526020019081526020015f20549050818110156103a6578381836040517fe450d38c00000000000000000000000000000000000000000000000000000000815260040161039d93929190610aeb565b60405180910390fd5b8181035f5f8673ffffffffffffffffffffffffffffffffffffffff1673ffffffffffffffffffffffffffffffffffffffff1681526020019081526020015f2081905550505b5f73ffffffffffffffffffffffffffffffffffffffff168273ffffffffffffffffffffffffffffffffffffffff1603610432578060025f828254039250508190555061047c565b805f5f8473ffffffffffffffffffffffffffffffffffffffff1673ffffffffffffffffffffffffffffffffffffffff1681526020019081526020015f205f82825401925050819055505b8173ffffffffffffffffffffffffffffffffffffffff168373ffffffffffffffffffffffffffffffffffffffff167fddf252ad1be2c89b69c2b068fc378daa952ba7f163c4a11628f55a4df523b3ef836040516104d99190610b20565b60405180910390a3505050565b5f5ffd5b5f73ffffffffffffffffffffffffffffffffffffffff82169050919050565b5f610513826104ea565b9050919050565b61052381610509565b811461052d575f5ffd5b50565b5f8151905061053e8161051a565b92915050565b5f5f6040838503121561055a576105596104e6565b5b5f61056785828601610530565b925050602061057885828601610530565b9150509250929050565b5f81519050919050565b7f4e487b71000000000000000000000000000000000000000000000000000000005f52604160045260245ffd5b7f4e487b71000000000000000000000000000000000000000000000000000000005f52602260045260245ffd5b5f60028204905060018216806105fd57607f821691505b6020821081036106105761060f6105b9565b5b50919050565b5f819050815f5260205f209050919050565b5f6020601f8301049050919050565b5f82821b905092915050565b5f600883026106727fffffffffffffffffffffffffffffffffffffffffffffffffffffffffffffffff82610637565b61067c8683610637565b95508019841693508086168417925050509392505050565b5f819050919050565b5f819050919050565b5f6106c06106bb6106b684610694565b61069d565b610694565b9050919050565b5f819050919050565b6106d9836106a6565b6106ed6106e5826106c7565b848454610643565b825550505050565b5f5f905090565b6107046106f5565b61070f8184846106d0565b505050565b5b81811015610732576107275f826106fc565b600181019050610715565b5050565b601f8211156107775761074881610616565b61075184610628565b81016020851015610760578190505b61077461076c85610628565b830182610714565b50505b505050565b5f82821c905092915050565b5f6107975f198460080261077c565b1980831691505092915050565b5f6107af8383610788565b9150826002028217905092915050565b6107c882610582565b67ffffffffffffffff8111156107e1576107e061058c565b5b6107eb82546105e6565b6107f6828285610736565b5f60209050601f831160018114610827575f8415610815578287015190505b61081f85826107a4565b865550610886565b601f19841661083586610616565b5f5b8281101561085c57848901518255600182019150602085019450602081019050610837565b868310156108795784890151610875601f891682610788565b8355505b6001600288020188555050505b505050505050565b61089781610509565b82525050565b5f6020820190506108b05f83018461088e565b92915050565b7f4e487b71000000000000000000000000000000000000000000000000000000005f52601160045260245ffd5b5f8160011c9050919050565b5f5f8291508390505b600185111561093857808604811115610914576109136108b6565b5b60018516156109235780820291505b8081029050610931856108e3565b94506108f8565b94509492505050565b5f826109505760019050610a0b565b8161095d575f9050610a0b565b8160018114610973576002811461097d576109ac565b6001915050610a0b565b60ff84111561098f5761098e6108b6565b5b8360020a9150848211156109a6576109a56108b6565b5b50610a0b565b5060208310610133831016604e8410600b84101617156109e15782820a9050838111156109dc576109db6108b6565b5b610a0b565b6109ee84848460016108ef565b92509050818404811115610a0557610a046108b6565b5b81810290505b9392505050565b5f60ff82169050919050565b5f610a2882610694565b9150610a3383610a12565b9250610a607fffffffffffffffffffffffffffffffffffffffffffffffffffffffffffffffff8484610941565b905092915050565b5f610a7282610694565b9150610a7d83610694565b9250828202610a8b81610694565b91508282048414831517610aa257610aa16108b6565b5b5092915050565b5f610ab382610694565b9150610abe83610694565b9250828201905080821115610ad657610ad56108b6565b5b92915050565b610ae581610694565b82525050565b5f606082019050610afe5f83018661088e565b610b0b6020830185610adc565b610b186040830184610adc565b949350505050565b5f602082019050610b335f830184610adc565b92915050565b61125780610b465f395ff3fe608060405234801561000f575f5ffd5b50600436106100f3575f3560e01c806370a082311161009557806395d89b411161006457806395d89b411461025d578063a9059cbb1461027b578063dd62ed3e146102ab578063f2fde38b146102db576100f3565b806370a08231146101e9578063715018a61461021957806379cc6790146102235780638da5cb5b1461023f576100f3565b806323b872dd116100d157806323b872dd14610163578063313ce5671461019357806340c10f19146101b157806342966c68146101cd576100f3565b806306fdde03146100f7578063095ea7b31461011557806318160ddd14610145575b5f5ffd5b6100ff6102f7565b60405161010c9190610ea5565b60405180910390f35b61012f600480360381019061012a9190610f56565b610387565b60405161013c9190610fae565b60405180910390f35b61014d6103a9565b60405161015a9190610fd6565b60405180910390f35b61017d60048036038101906101789190610fef565b6103b2565b60405161018a9190610fae565b60405180910390f35b61019b6103e0565b6040516101a8919061105a565b60405180910390f35b6101cb60048036038101906101c69190610f56565b6103e8565b005b6101e760048036038101906101e29190611073565b6103fe565b005b61020360048036038101906101fe919061109e565b610412565b6040516102109190610fd6565b60405180910390f35b610221610457565b005b61023d60048036038101906102389190610f56565b61046a565b005b61024761048a565b60405161025491906110d8565b60405180910390f35b6102656104b2565b6040516102729190610ea5565b60405180910390f35b61029560048036038101906102909190610f56565b610542565b6040516102a29190610fae565b60405180910390f35b6102c560048036038101906102c091906110f1565b610564565b6040516102d29190610fd6565b60405180910390f35b6102f560048036038101906102f0919061109e565b6105e6565b005b6060600380546103069061115c565b80601f01602080910402602001604051908101604052809291908181526020018280546103329061115c565b801561037d5780601f106103545761010080835404028352916020019161037d565b820191905f5260205f20905b81548152906001019060200180831161036057829003601f168201915b5050505050905090565b5f5f61039161066a565b905061039e818585610671565b600191505092915050565b5f600254905090565b5f5f6103bc61066a565b90506103c9858285610683565b6103d4858585610715565b60019150509392505050565b5f6012905090565b6103f0610805565b6103fa828261088c565b5050565b61040f61040961066a565b8261090b565b50565b5f5f5f8373ffffffffffffffffffffffffffffffffffffffff1673ffffffffffffffffffffffffffffffffffffffff1681526020019081526020015f20549050919050565b61045f610805565b6104685f61098a565b565b61047c8261047661066a565b83610683565b610486828261090b565b5050565b5f60055f9054906101000a900473ffffffffffffffffffffffffffffffffffffffff16905090565b6060600480546104c19061115c565b80601f01602080910402602001604051908101604052809291908181526020018280546104ed9061115c565b80156105385780601f1061050f57610100808354040283529160200191610538565b820191905f5260205f20905b81548152906001019060200180831161051b57829003601f168201915b5050505050905090565b5f5f61054c61066a565b9050610559818585610715565b600191505092915050565b5f60015f8473ffffffffffffffffffffffffffffffffffffffff1673ffffffffffffffffffffffffffffffffffffffff1681526020019081526020015f205f8373ffffffffffffffffffffffffffffffffffffffff1673ffffffffffffffffffffffffffffffffffffffff1681526020019081526020015f2054905092915050565b6105ee610805565b5f73ffffffffffffffffffffffffffffffffffffffff168173ffffffffffffffffffffffffffffffffffffffff160361065e575f6040517f1e4fbdf700000000000000000000000000000000000000000000000000000000815260040161065591906110d8565b60405180910390fd5b6106678161098a565b50565b5f33905090565b61067e8383836001610a4d565b505050565b5f61068e8484610564565b90507fffffffffffffffffffffffffffffffffffffffffffffffffffffffffffffffff811461070f5781811015610700578281836040517ffb8f41b20000000000000000000000000000000000000000000000000000000081526004016106f79392919061118c565b60405180910390fd5b61070e84848484035f610a4d565b5b50505050565b5f73ffffffffffffffffffffffffffffffffffffffff168373ffffffffffffffffffffffffffffffffffffffff1603610785575f6040517f96c6fd1e00000000000000000000000000000000000000000000000000000000815260040161077c91906110d8565b60405180910390fd5b5f73ffffffffffffffffffffffffffffffffffffffff168273ffffffffffffffffffffffffffffffffffffffff16036107f5575f6040517fec442f050000000000000000000000000000000000000000000000000000000081526004016107ec91906110d8565b60405180910390fd5b610800838383610c1c565b505050565b61080d61066a565b73ffffffffffffffffffffffffffffffffffffffff1661082b61048a565b73ffffffffffffffffffffffffffffffffffffffff161461088a5761084e61066a565b6040517f118cdaa700000000000000000000000000000000000000000000000000000000815260040161088191906110d8565b60405180910390fd5b565b5f73ffffffffffffffffffffffffffffffffffffffff168273ffffffffffffffffffffffffffffffffffffffff16036108fc575f6040517fec442f050000000000000000000000000000000000000000000000000000000081526004016108f391906110d8565b60405180910390fd5b6109075f8383610c1c565b5050565b5f73ffffffffffffffffffffffffffffffffffffffff168273ffffffffffffffffffffffffffffffffffffffff160361097b575f6040517f96c6fd1e00000000000000000000000000000000000000000000000000000000815260040161097291906110d8565b60405180910390fd5b610986825f83610c1c565b5050565b5f60055f9054906101000a900473ffffffffffffffffffffffffffffffffffffffff1690508160055f6101000a81548173ffffffffffffffffffffffffffffffffffffffff021916908373ffffffffffffffffffffffffffffffffffffffff1602179055508173ffffffffffffffffffffffffffffffffffffffff168173ffffffffffffffffffffffffffffffffffffffff167f8be0079c531659141344cd1fd0a4f28419497f9722a3daafe3b4186f6b6457e060405160405180910390a35050565b5f73ffffffffffffffffffffffffffffffffffffffff168473ffffffffffffffffffffffffffffffffffffffff1603610abd575f6040517fe602df05000000000000000000000000000000000000000000000000000000008152600401610ab491906110d8565b60405180910390fd5b5f73ffffffffffffffffffffffffffffffffffffffff168373ffffffffffffffffffffffffffffffffffffffff1603610b2d575f6040517f94280d62000000000000000000000000000000000000000000000000000000008152600401610b2491906110d8565b60405180910390fd5b8160015f8673ffffffffffffffffffffffffffffffffffffffff1673ffffffffffffffffffffffffffffffffffffffff1681526020019081526020015f205f8573ffffffffffffffffffffffffffffffffffffffff1673ffffffffffffffffffffffffffffffffffffffff1681526020019081526020015f20819055508015610c16578273ffffffffffffffffffffffffffffffffffffffff168473ffffffffffffffffffffffffffffffffffffffff167f8c5be1e5ebec7d5bd14f71427d1e84f3dd0314c0f7b2291e5b200ac8c7c3b92584604051610c0d9190610fd6565b60405180910390a35b50505050565b5f73ffffffffffffffffffffffffffffffffffffffff168373ffffffffffffffffffffffffffffffffffffffff1603610c6c578060025f828254610c6091906111ee565b92505081905550610d3a565b5f5f5f8573ffffffffffffffffffffffffffffffffffffffff1673ffffffffffffffffffffffffffffffffffffffff1681526020019081526020015f2054905081811015610cf5578381836040517fe450d38c000000000000000000000000000000000000000000000000000000008152600401610cec9392919061118c565b60405180910390fd5b8181035f5f8673ffffffffffffffffffffffffffffffffffffffff1673ffffffffffffffffffffffffffffffffffffffff1681526020019081526020015f2081905550505b5f73ffffffffffffffffffffffffffffffffffffffff168273ffffffffffffffffffffffffffffffffffffffff1603610d81578060025f8282540392505081905550610dcb565b805f5f8473ffffffffffffffffffffffffffffffffffffffff1673ffffffffffffffffffffffffffffffffffffffff1681526020019081526020015f205f82825401925050819055505b8173ffffffffffffffffffffffffffffffffffffffff168373ffffffffffffffffffffffffffffffffffffffff167fddf252ad1be2c89b69c2b068fc378daa952ba7f163c4a11628f55a4df523b3ef83604051610e289190610fd6565b60405180910390a3505050565b5f81519050919050565b5f82825260208201905092915050565b8281835e5f83830152505050565b5f601f19601f8301169050919050565b5f610e7782610e35565b610e818185610e3f565b9350610e91818560208601610e4f565b610e9a81610e5d565b840191505092915050565b5f6020820190508181035f830152610ebd8184610e6d565b905092915050565b5f5ffd5b5f73ffffffffffffffffffffffffffffffffffffffff82169050919050565b5f610ef282610ec9565b9050919050565b610f0281610ee8565b8114610f0c575f5ffd5b50565b5f81359050610f1d81610ef9565b92915050565b5f819050919050565b610f3581610f23565b8114610f3f575f5ffd5b50565b5f81359050610f5081610f2c565b92915050565b5f5f60408385031215610f6c57610f6b610ec5565b5b5f610f7985828601610f0f565b9250506020610f8a85828601610f42565b9150509250929050565b5f8115159050919050565b610fa881610f94565b82525050565b5f602082019050610fc15f830184610f9f565b92915050565b610fd081610f23565b82525050565b5f602082019050610fe95f830184610fc7565b92915050565b5f5f5f6060848603121561100657611005610ec5565b5b5f61101386828701610f0f565b935050602061102486828701610f0f565b925050604061103586828701610f42565b9150509250925092565b5f60ff82169050919050565b6110548161103f565b82525050565b5f60208201905061106d5f83018461104b565b92915050565b5f6020828403121561108857611087610ec5565b5b5f61109584828501610f42565b91505092915050565b5f602082840312156110b3576110b2610ec5565b5b5f6110c084828501610f0f565b91505092915050565b6110d281610ee8565b82525050565b5f6020820190506110eb5f8301846110c9565b92915050565b5f5f6040838503121561110757611106610ec5565b5b5f61111485828601610f0f565b925050602061112585828601610f0f565b9150509250929050565b7f4e487b71000000000000000000000000000000000000000000000000000000005f52602260045260245ffd5b5f600282049050600182168061117357607f821691505b6020821081036111865761118561112f565b5b50919050565b5f60608201905061119f5f8301866110c9565b6111ac6020830185610fc7565b6111b96040830184610fc7565b949350505050565b7f4e487b71000000000000000000000000000000000000000000000000000000005f52601160045260245ffd5b5f6111f882610f23565b915061120383610f23565b925082820190508082111561121b5761121a6111c1565b5b9291505056fea264697066735822122070e262f2cda9b834d66f2ebbb37e6b8dfa340f46b380597f42f1cd588041976e64736f6c634300081c0033","linkReferences":{}},"methodIdentifiers":{"allowance(address,address)":"dd62ed3e","approve(address,uint256)":"095ea7b3","balanceOf(address)":"70a08231","burn(uint256)":"42966c68","burnFrom(address,uint256)":"79cc6790","decimals()":"313ce567","mint(address,uint256)":"40c10f19","name()":"06fdde03","owner()":"8da5cb5b","renounceOwnership()":"715018a6","symbol()":"95d89b41","totalSupply()":"18160ddd","transfer(address,uint256)":"a9059cbb","transferFrom(address,address,uint256)":"23b872dd","transferOwnership(address)":"f2fde38b"},"id":29}