{"abi":[{"type":"constructor","inputs":[{"name":"_token","type":"address","internalType":"address"}],"stateMutability":"nonpayable"},{"type":"function","name":"acceptOwnership","inputs":[],"outputs":[],"stateMutability":"nonpayable"},{"type":"function","name":"deposit","inputs":[{"name":"_unlockTime","type":"uint256","internalType":"uint256"}],"outputs":[{"name":"","type":"uint256","internalType":"uint256"}],"stateMutability":"payable"},{"type":"function","name":"emergencyWithdraw","inputs":[],"outputs":[{"name":"amount","type":"uint256","internalType":"uint256"}],"stateMutability":"nonpayable"},{"type":"function","name":"getActiveVaults","inputs":[{"name":"_user","type":"address","internalType":"address"}],"outputs":[{"name":"activeVaults","type":"uint256[]","internalType":"uint256[]"},{"name":"balances","type":"uint256[]","internalType":"uint256[]"},{"name":"tokenBalances","type":"uint256[]","internalType":"uint256[]"},{"name":"unlockTimes","type":"uint256[]","internalType":"uint256[]"}],"stateMutability":"view"},{"type":"function","name":"getAllVaults","inputs":[{"name":"_user","type":"address","internalType":"address"}],"outputs":[{"name":"","type":"tuple[]","internalType":"struct TimeLockV2.Vault[]","components":[{"name":"balance","type":"uint256","internalType":"uint256"},{"name":"tokenBalance","type":"uint256","internalType":"uint256"},{"name":"unlockTime","type":"uint256","internalType":"uint256"},{"name":"active","type":"bool","internalType":"bool"}]}],"stateMutability":"view"},{"type":"function","name":"getTotalBalance","inputs":[{"name":"_user","type":"address","internalType":"address"}],"outputs":[{"name":"total","type":"uint256","internalType":"uint256"}],"stateMutability":"view"},{"type":"function","name":"getUnlockedBalance","inputs":[{"name":"_user","type":"address","internalType":"address"}],"outputs":[{"name":"unlocked","type":"uint256","internalType":"uint256"}],"stateMutability":"view"},{"type":"function","name":"getVault","inputs":[{"name":"_user","type":"address","internalType":"address"},{"name":"_vaultId","type":"uint256","internalType":"uint256"}],"outputs":[{"name":"balance","type":"uint256","internalType":"uint256"},{"name":"tokenBalance","type":"uint256","internalType":"uint256"},{"name":"unlockTime","type":"uint256","internalType":"uint256"},{"name":"active","type":"bool","internalType":"bool"},{"name":"isUnlocked","type":"bool","internalType":"bool"}],"stateMutability":"view"},{"type":"function","name":"getVaultCount","inputs":[{"name":"_user","type":"address","internalType":"address"}],"outputs":[{"name":"","type":"uint256","internalType":"uint256"}],"stateMutability":"view"},{"type":"function","name":"owner","inputs":[],"outputs":[{"name":"","type":"address","internalType":"address"}],"stateMutability":"view"},{"type":"function","name":"pendingOwner","inputs":[],"outputs":[{"name":"","type":"address","internalType":"address"}],"stateMutability":"view"},{"type":"function","name":"token","inputs":[],"outputs":[{"name":"","type":"address","internalType":"contract IErc20"}],"stateMutability":"view"},{"type":"function","name":"transferOwnership","inputs":[{"name":"newOwner","type":"address","internalType":"address"}],"outputs":[],"stateMutability":"nonpayable"},{"type":"function","name":"withdraw","inputs":[{"name":"_vaultId","type":"uint256","internalType":"uint256"}],"outputs":[],"stateMutability":"nonpayable"},{"type":"function","name":"withdrawAll","inputs":[],"outputs":[{"name":"","type":"uint256","internalType":"uint256"}],"stateMutability":"nonpayable"},{"type":"event","name":"Deposited","inputs":[{"name":"user","type":"address","indexed":true,"internalType":"address"},{"name":"vaultId","type":"uint256","indexed":false,"internalType":"uint256"},{"name":"amount","type":"uint256","indexed":false,"internalType":"uint256"},{"name":"unlockTime","type":"uint256","indexed":false,"internalType":"uint256"}],"anonymous":false},{"type":"event","name":"EmergencyWithdrawn","inputs":[{"name":"owner","type":"address","indexed":true,"internalType":"address"},{"name":"amount","type":"uint256","indexed":false,"internalType":"uint256"}],"anonymous":false},{"type":"event","name":"OwnershipTransferStarted","inputs":[{"name":"previousOwner","type":"address","indexed":true,"internalType":"address"},{"name":"newOwner","type":"address","indexed":true,"internalType":"address"}],"anonymous":false},{"type":"event","name":"OwnershipTransferred","inputs":[{"name":"previousOwner","type":"address","indexed":true,"internalType":"address"},{"name":"newOwner","type":"address","indexed":true,"internalType":"address"}],"anonymous":false},{"type":"event","name":"Withdrawn","inputs":[{"name":"user","type":"address","indexed":true,"internalType":"address"},{"name":"vaultId","type":"uint256","indexed":false,"internalType":"uint256"},{"name":"amount","type":"uint256","indexed":false,"internalType":"uint256"}],"anonymous":false}],"bytecode":{"object":"0x60a060405234801561000f575f5ffd5b50604051612b48380380612b4883398181016040528101906100319190610108565b8073ffffffffffffffffffffffffffffffffffffffff1660808173ffffffffffffffffffffffffffffffffffffffff1681525050335f5f6101000a81548173ffffffffffffffffffffffffffffffffffffffff021916908373ffffffffffffffffffffffffffffffffffffffff16021790555050610133565b5f5ffd5b5f73ffffffffffffffffffffffffffffffffffffffff82169050919050565b5f6100d7826100ae565b9050919050565b6100e7816100cd565b81146100f1575f5ffd5b50565b5f81519050610102816100de565b92915050565b5f6020828403121561011d5761011c6100aa565b5b5f61012a848285016100f4565b91505092915050565b6080516129e86101605f395f81816106df0152818161108f015281816113a00152611c1801526129e85ff3fe6080604052600436106100e7575f3560e01c8063a2e5437c11610089578063db2e21bc11610058578063db2e21bc1461031c578063e30c397814610346578063f2fde38b14610370578063fc0c546a14610398576100e7565b8063a2e5437c14610234578063b6b55f2514610270578063d3d38193146102a0578063d99d13f5146102dc576100e7565b806377e1296e116100c557806377e1296e1461018e57806379ba5097146101ca578063853828b6146101e05780638da5cb5b1461020a576100e7565b8063129de5bf146100eb5780632e1a7d4d1461012757806357c57f721461014f575b5f5ffd5b3480156100f6575f5ffd5b50610111600480360381019061010c9190611cad565b6103c2565b60405161011e9190611cf0565b60405180910390f35b348015610132575f5ffd5b5061014d60048036038101906101489190611d33565b6104e6565b005b34801561015a575f5ffd5b5061017560048036038101906101709190611cad565b6108b8565b6040516101859493929190611e15565b60405180910390f35b348015610199575f5ffd5b506101b460048036038101906101af9190611cad565b610c3d565b6040516101c19190611cf0565b60405180910390f35b3480156101d5575f5ffd5b506101de610c86565b005b3480156101eb575f5ffd5b506101f4610e15565b6040516102019190611cf0565b60405180910390f35b348015610215575f5ffd5b5061021e611219565b60405161022b9190611e83565b60405180910390f35b34801561023f575f5ffd5b5061025a60048036038101906102559190611cad565b61123d565b6040516102679190611fb1565b60405180910390f35b61028a60048036038101906102859190611d33565b61130d565b6040516102979190611cf0565b60405180910390f35b3480156102ab575f5ffd5b506102c660048036038101906102c19190611cad565b6115e8565b6040516102d39190611cf0565b60405180910390f35b3480156102e7575f5ffd5b5061030260048036038101906102fd9190611fd1565b6116b2565b60405161031395949392919061201e565b60405180910390f35b348015610327575f5ffd5b506103306117d3565b60405161033d9190611cf0565b60405180910390f35b348015610351575f5ffd5b5061035a6119aa565b6040516103679190611e83565b60405180910390f35b34801561037b575f5ffd5b5061039660048036038101906103919190611cad565b6119cf565b005b3480156103a3575f5ffd5b506103ac611c16565b6040516103b991906120ca565b60405180910390f35b5f5f60025f8473ffffffffffffffffffffffffffffffffffffffff1673ffffffffffffffffffffffffffffffffffffffff1681526020019081526020015f2090505f5f90505b81805490508110156104df57818181548110610427576104266120e3565b5b905f5260205f2090600402016003015f9054906101000a900460ff16801561046f57505f82828154811061045e5761045d6120e3565b5b905f5260205f2090600402015f0154115b801561049d5750818181548110610489576104886120e3565b5b905f5260205f209060040201600201544210155b156104d2578181815481106104b5576104b46120e3565b5b905f5260205f2090600402015f0154836104cf919061213d565b92505b8080600101915050610408565b5050919050565b60025f3373ffffffffffffffffffffffffffffffffffffffff1673ffffffffffffffffffffffffffffffffffffffff1681526020019081526020015f20805490508110610568576040517f08c379a000000000000000000000000000000000000000000000000000000000815260040161055f906121ca565b60405180910390fd5b5f60025f3373ffffffffffffffffffffffffffffffffffffffff1673ffffffffffffffffffffffffffffffffffffffff1681526020019081526020015f2082815481106105b8576105b76120e3565b5b905f5260205f2090600402019050806003015f9054906101000a900460ff16610616576040517f08c379a000000000000000000000000000000000000000000000000000000000815260040161060d90612232565b60405180910390fd5b5f815f01541161065b576040517f08c379a00000000000000000000000000000000000000000000000000000000081526004016106529061229a565b60405180910390fd5b80600201544210156106a2576040517f08c379a000000000000000000000000000000000000000000000000000000000815260040161069990612302565b60405180910390fd5b5f815f015490505f826001015490505f835f01819055505f83600101819055505f836003015f6101000a81548160ff0219169083151502179055507f000000000000000000000000000000000000000000000000000000000000000073ffffffffffffffffffffffffffffffffffffffff166323b872dd3330846040518463ffffffff1660e01b815260040161073a93929190612320565b6020604051808303815f875af1158015610756573d5f5f3e3d5ffd5b505050506040513d601f19601f8201168201806040525081019061077a919061237f565b6107b9576040517f08c379a00000000000000000000000000000000000000000000000000000000081526004016107b0906123f4565b60405180910390fd5b5f3373ffffffffffffffffffffffffffffffffffffffff16836040516107de9061243f565b5f6040518083038185875af1925050503d805f8114610818576040519150601f19603f3d011682016040523d82523d5f602084013e61081d565b606091505b5050905080610861576040517f08c379a00000000000000000000000000000000000000000000000000000000081526004016108589061249d565b60405180910390fd5b3373ffffffffffffffffffffffffffffffffffffffff167f92ccf450a286a957af52509bc1c9939d1a6a481783e142e41e2499f0bb66ebc686856040516108a99291906124bb565b60405180910390a25050505050565b6060806060805f60025f8773ffffffffffffffffffffffffffffffffffffffff1673ffffffffffffffffffffffffffffffffffffffff1681526020019081526020015f2090505f5f90505f5f90505b828054905081101561098f57828181548110610926576109256120e3565b5b905f5260205f2090600402016003015f9054906101000a900460ff16801561096e57505f83828154811061095d5761095c6120e3565b5b905f5260205f2090600402015f0154115b1561098257818061097e906124e2565b9250505b8080600101915050610907565b508067ffffffffffffffff8111156109aa576109a9612529565b5b6040519080825280602002602001820160405280156109d85781602001602082028036833780820191505090505b5095508067ffffffffffffffff8111156109f5576109f4612529565b5b604051908082528060200260200182016040528015610a235781602001602082028036833780820191505090505b5094508067ffffffffffffffff811115610a4057610a3f612529565b5b604051908082528060200260200182016040528015610a6e5781602001602082028036833780820191505090505b5093508067ffffffffffffffff811115610a8b57610a8a612529565b5b604051908082528060200260200182016040528015610ab95781602001602082028036833780820191505090505b5092505f5f90505f5f90505b8380549050811015610c3257838181548110610ae457610ae36120e3565b5b905f5260205f2090600402016003015f9054906101000a900460ff168015610b2c57505f848281548110610b1b57610b1a6120e3565b5b905f5260205f2090600402015f0154115b15610c255780888381518110610b4557610b446120e3565b5b602002602001018181525050838181548110610b6457610b636120e3565b5b905f5260205f2090600402015f0154878381518110610b8657610b856120e3565b5b602002602001018181525050838181548110610ba557610ba46120e3565b5b905f5260205f20906004020160010154868381518110610bc857610bc76120e3565b5b602002602001018181525050838181548110610be757610be66120e3565b5b905f5260205f20906004020160020154858381518110610c0a57610c096120e3565b5b6020026020010181815250508180610c21906124e2565b9250505b8080600101915050610ac5565b505050509193509193565b5f60025f8373ffffffffffffffffffffffffffffffffffffffff1673ffffffffffffffffffffffffffffffffffffffff1681526020019081526020015f20805490509050919050565b60015f9054906101000a900473ffffffffffffffffffffffffffffffffffffffff1673ffffffffffffffffffffffffffffffffffffffff163373ffffffffffffffffffffffffffffffffffffffff1614610d15576040517f08c379a0000000000000000000000000000000000000000000000000000000008152600401610d0c906125a0565b60405180910390fd5b5f5f5f9054906101000a900473ffffffffffffffffffffffffffffffffffffffff169050335f5f6101000a81548173ffffffffffffffffffffffffffffffffffffffff021916908373ffffffffffffffffffffffffffffffffffffffff1602179055505f60015f6101000a81548173ffffffffffffffffffffffffffffffffffffffff021916908373ffffffffffffffffffffffffffffffffffffffff1602179055503373ffffffffffffffffffffffffffffffffffffffff168173ffffffffffffffffffffffffffffffffffffffff167f8be0079c531659141344cd1fd0a4f28419497f9722a3daafe3b4186f6b6457e060405160405180910390a350565b5f5f5f90505f5f90505f60025f3373ffffffffffffffffffffffffffffffffffffffff1673ffffffffffffffffffffffffffffffffffffffff1681526020019081526020015f2090505f5f90505b818054905081101561104a57818181548110610e8257610e816120e3565b5b905f5260205f2090600402016003015f9054906101000a900460ff168015610eca57505f828281548110610eb957610eb86120e3565b5b905f5260205f2090600402015f0154115b8015610ef85750818181548110610ee457610ee36120e3565b5b905f5260205f209060040201600201544210155b1561103d575f828281548110610f1157610f106120e3565b5b905f5260205f2090600402015f015490505f838381548110610f3657610f356120e3565b5b905f5260205f2090600402016001015490505f848481548110610f5c57610f5b6120e3565b5b905f5260205f2090600402015f01819055505f848481548110610f8257610f816120e3565b5b905f5260205f209060040201600101819055505f848481548110610fa957610fa86120e3565b5b905f5260205f2090600402016003015f6101000a81548160ff0219169083151502179055508186610fda919061213d565b95508085610fe8919061213d565b94503373ffffffffffffffffffffffffffffffffffffffff167f92ccf450a286a957af52509bc1c9939d1a6a481783e142e41e2499f0bb66ebc684846040516110329291906124bb565b60405180910390a250505b8080600101915050610e63565b505f831161108d576040517f08c379a000000000000000000000000000000000000000000000000000000000815260040161108490612608565b60405180910390fd5b7f000000000000000000000000000000000000000000000000000000000000000073ffffffffffffffffffffffffffffffffffffffff1663a9059cbb33846040518363ffffffff1660e01b81526004016110e8929190612626565b6020604051808303815f875af1158015611104573d5f5f3e3d5ffd5b505050506040513d601f19601f82011682018060405250810190611128919061237f565b611167576040517f08c379a000000000000000000000000000000000000000000000000000000000815260040161115e906123f4565b60405180910390fd5b5f3373ffffffffffffffffffffffffffffffffffffffff168460405161118c9061243f565b5f6040518083038185875af1925050503d805f81146111c6576040519150601f19603f3d011682016040523d82523d5f602084013e6111cb565b606091505b505090508061120f576040517f08c379a00000000000000000000000000000000000000000000000000000000081526004016112069061249d565b60405180910390fd5b8394505050505090565b5f5f9054906101000a900473ffffffffffffffffffffffffffffffffffffffff1681565b606060025f8373ffffffffffffffffffffffffffffffffffffffff1673ffffffffffffffffffffffffffffffffffffffff1681526020019081526020015f20805480602002602001604051908101604052809291908181526020015f905b82821015611302578382905f5260205f2090600402016040518060800160405290815f82015481526020016001820154815260200160028201548152602001600382015f9054906101000a900460ff1615151515815250508152602001906001019061129b565b505050509050919050565b5f5f3411611350576040517f08c379a0000000000000000000000000000000000000000000000000000000008152600401611347906126bd565b60405180910390fd5b428211611392576040517f08c379a00000000000000000000000000000000000000000000000000000000081526004016113899061274b565b60405180910390fd5b5f61139c34611c3a565b90507f000000000000000000000000000000000000000000000000000000000000000073ffffffffffffffffffffffffffffffffffffffff1663a9059cbb33836040518363ffffffff1660e01b81526004016113f9929190612626565b6020604051808303815f875af1158015611415573d5f5f3e3d5ffd5b505050506040513d601f19601f82011682018060405250810190611439919061237f565b611478576040517f08c379a000000000000000000000000000000000000000000000000000000000815260040161146f906123f4565b60405180910390fd5b60025f3373ffffffffffffffffffffffffffffffffffffffff1673ffffffffffffffffffffffffffffffffffffffff1681526020019081526020015f20604051806080016040528034815260200183815260200185815260200160011515815250908060018154018082558091505060019003905f5260205f2090600402015f909190919091505f820151815f015560208201518160010155604082015181600201556060820151816003015f6101000a81548160ff02191690831515021790555050505f600160025f3373ffffffffffffffffffffffffffffffffffffffff1673ffffffffffffffffffffffffffffffffffffffff1681526020019081526020015f208054905061158a9190612769565b90503373ffffffffffffffffffffffffffffffffffffffff167f91ede45f04a37a7c170f5c1207df3b6bc748dc1e04ad5e917a241d0f52feada38234876040516115d69392919061279c565b60405180910390a28092505050919050565b5f5f60025f8473ffffffffffffffffffffffffffffffffffffffff1673ffffffffffffffffffffffffffffffffffffffff1681526020019081526020015f2090505f5f90505b81805490508110156116ab5781818154811061164d5761164c6120e3565b5b905f5260205f2090600402016003015f9054906101000a900460ff161561169e57818181548110611681576116806120e3565b5b905f5260205f2090600402015f01548361169b919061213d565b92505b808060010191505061162e565b5050919050565b5f5f5f5f5f60025f8873ffffffffffffffffffffffffffffffffffffffff1673ffffffffffffffffffffffffffffffffffffffff1681526020019081526020015f20805490508610611739576040517f08c379a0000000000000000000000000000000000000000000000000000000008152600401611730906121ca565b60405180910390fd5b5f60025f8973ffffffffffffffffffffffffffffffffffffffff1673ffffffffffffffffffffffffffffffffffffffff1681526020019081526020015f208781548110611789576117886120e3565b5b905f5260205f2090600402019050805f015481600101548260020154836003015f9054906101000a900460ff16846002015442101595509550955095509550509295509295909350565b5f5f5f9054906101000a900473ffffffffffffffffffffffffffffffffffffffff1673ffffffffffffffffffffffffffffffffffffffff163373ffffffffffffffffffffffffffffffffffffffff1614611862576040517f08c379a00000000000000000000000000000000000000000000000000000000081526004016118599061281b565b60405180910390fd5b4790505f81116118a7576040517f08c379a000000000000000000000000000000000000000000000000000000000815260040161189e90612883565b60405180910390fd5b5f5f5f9054906101000a900473ffffffffffffffffffffffffffffffffffffffff1673ffffffffffffffffffffffffffffffffffffffff16826040516118ec9061243f565b5f6040518083038185875af1925050503d805f8114611926576040519150601f19603f3d011682016040523d82523d5f602084013e61192b565b606091505b5050905080611938575f5ffd5b5f5f9054906101000a900473ffffffffffffffffffffffffffffffffffffffff1673ffffffffffffffffffffffffffffffffffffffff167f2e39961a70a10f4d46383948095ac2752b3ee642a7c76aa827410aaff08c2e518360405161199e9190611cf0565b60405180910390a25090565b60015f9054906101000a900473ffffffffffffffffffffffffffffffffffffffff1681565b5f5f9054906101000a900473ffffffffffffffffffffffffffffffffffffffff1673ffffffffffffffffffffffffffffffffffffffff163373ffffffffffffffffffffffffffffffffffffffff1614611a5d576040517f08c379a0000000000000000000000000000000000000000000000000000000008152600401611a549061281b565b60405180910390fd5b5f73ffffffffffffffffffffffffffffffffffffffff168173ffffffffffffffffffffffffffffffffffffffff1603611acb576040517f08c379a0000000000000000000000000000000000000000000000000000000008152600401611ac2906128eb565b60405180910390fd5b5f5f9054906101000a900473ffffffffffffffffffffffffffffffffffffffff1673ffffffffffffffffffffffffffffffffffffffff168173ffffffffffffffffffffffffffffffffffffffff1603611b59576040517f08c379a0000000000000000000000000000000000000000000000000000000008152600401611b5090612953565b60405180910390fd5b8060015f6101000a81548173ffffffffffffffffffffffffffffffffffffffff021916908373ffffffffffffffffffffffffffffffffffffffff1602179055508073ffffffffffffffffffffffffffffffffffffffff165f5f9054906101000a900473ffffffffffffffffffffffffffffffffffffffff1673ffffffffffffffffffffffffffffffffffffffff167f38d16b8cac22d99fc7c124b9cd0de2d3fa1faef420bfe791d8c362d765e2270060405160405180910390a350565b7f000000000000000000000000000000000000000000000000000000000000000081565b5f600a82611c489190612971565b9050919050565b5f5ffd5b5f73ffffffffffffffffffffffffffffffffffffffff82169050919050565b5f611c7c82611c53565b9050919050565b611c8c81611c72565b8114611c96575f5ffd5b50565b5f81359050611ca781611c83565b92915050565b5f60208284031215611cc257611cc1611c4f565b5b5f611ccf84828501611c99565b91505092915050565b5f819050919050565b611cea81611cd8565b82525050565b5f602082019050611d035f830184611ce1565b92915050565b611d1281611cd8565b8114611d1c575f5ffd5b50565b5f81359050611d2d81611d09565b92915050565b5f60208284031215611d4857611d47611c4f565b5b5f611d5584828501611d1f565b91505092915050565b5f81519050919050565b5f82825260208201905092915050565b5f819050602082019050919050565b611d9081611cd8565b82525050565b5f611da18383611d87565b60208301905092915050565b5f602082019050919050565b5f611dc382611d5e565b611dcd8185611d68565b9350611dd883611d78565b805f5b83811015611e08578151611def8882611d96565b9750611dfa83611dad565b925050600181019050611ddb565b5085935050505092915050565b5f6080820190508181035f830152611e2d8187611db9565b90508181036020830152611e418186611db9565b90508181036040830152611e558185611db9565b90508181036060830152611e698184611db9565b905095945050505050565b611e7d81611c72565b82525050565b5f602082019050611e965f830184611e74565b92915050565b5f81519050919050565b5f82825260208201905092915050565b5f819050602082019050919050565b5f8115159050919050565b611ed981611ec5565b82525050565b608082015f820151611ef35f850182611d87565b506020820151611f066020850182611d87565b506040820151611f196040850182611d87565b506060820151611f2c6060850182611ed0565b50505050565b5f611f3d8383611edf565b60808301905092915050565b5f602082019050919050565b5f611f5f82611e9c565b611f698185611ea6565b9350611f7483611eb6565b805f5b83811015611fa4578151611f8b8882611f32565b9750611f9683611f49565b925050600181019050611f77565b5085935050505092915050565b5f6020820190508181035f830152611fc98184611f55565b905092915050565b5f5f60408385031215611fe757611fe6611c4f565b5b5f611ff485828601611c99565b925050602061200585828601611d1f565b9150509250929050565b61201881611ec5565b82525050565b5f60a0820190506120315f830188611ce1565b61203e6020830187611ce1565b61204b6040830186611ce1565b612058606083018561200f565b612065608083018461200f565b9695505050505050565b5f819050919050565b5f61209261208d61208884611c53565b61206f565b611c53565b9050919050565b5f6120a382612078565b9050919050565b5f6120b482612099565b9050919050565b6120c4816120aa565b82525050565b5f6020820190506120dd5f8301846120bb565b92915050565b7f4e487b71000000000000000000000000000000000000000000000000000000005f52603260045260245ffd5b7f4e487b71000000000000000000000000000000000000000000000000000000005f52601160045260245ffd5b5f61214782611cd8565b915061215283611cd8565b925082820190508082111561216a57612169612110565b5b92915050565b5f82825260208201905092915050565b7f496e76616c6964207661756c74204944000000000000000000000000000000005f82015250565b5f6121b4601083612170565b91506121bf82612180565b602082019050919050565b5f6020820190508181035f8301526121e1816121a8565b9050919050565b7f5661756c74206973206e6f7420616374697665000000000000000000000000005f82015250565b5f61221c601383612170565b9150612227826121e8565b602082019050919050565b5f6020820190508181035f83015261224981612210565b9050919050565b7f5661756c7420686173207a65726f2062616c616e6365000000000000000000005f82015250565b5f612284601683612170565b915061228f82612250565b602082019050919050565b5f6020820190508181035f8301526122b181612278565b9050919050565b7f46756e647320617265207374696c6c206c6f636b6564000000000000000000005f82015250565b5f6122ec601683612170565b91506122f7826122b8565b602082019050919050565b5f6020820190508181035f830152612319816122e0565b9050919050565b5f6060820190506123335f830186611e74565b6123406020830185611e74565b61234d6040830184611ce1565b949350505050565b61235e81611ec5565b8114612368575f5ffd5b50565b5f8151905061237981612355565b92915050565b5f6020828403121561239457612393611c4f565b5b5f6123a18482850161236b565b91505092915050565b7f546f6b656e207472616e73666572206661696c656400000000000000000000005f82015250565b5f6123de601583612170565b91506123e9826123aa565b602082019050919050565b5f6020820190508181035f83015261240b816123d2565b9050919050565b5f81905092915050565b50565b5f61242a5f83612412565b91506124358261241c565b5f82019050919050565b5f6124498261241f565b9150819050919050565b7f5472616e73666572206661696c656400000000000000000000000000000000005f82015250565b5f612487600f83612170565b915061249282612453565b602082019050919050565b5f6020820190508181035f8301526124b48161247b565b9050919050565b5f6040820190506124ce5f830185611ce1565b6124db6020830184611ce1565b9392505050565b5f6124ec82611cd8565b91507fffffffffffffffffffffffffffffffffffffffffffffffffffffffffffffffff820361251e5761251d612110565b5b600182019050919050565b7f4e487b71000000000000000000000000000000000000000000000000000000005f52604160045260245ffd5b7f4e6f742070656e64696e67206f776e65720000000000000000000000000000005f82015250565b5f61258a601183612170565b915061259582612556565b602082019050919050565b5f6020820190508181035f8301526125b78161257e565b9050919050565b7f4e6f20756e6c6f636b65642066756e647320617661696c61626c6500000000005f82015250565b5f6125f2601b83612170565b91506125fd826125be565b602082019050919050565b5f6020820190508181035f83015261261f816125e6565b9050919050565b5f6040820190506126395f830185611e74565b6126466020830184611ce1565b9392505050565b7f4465706f736974206d7573742062652067726561746572207468616e207a65725f8201527f6f00000000000000000000000000000000000000000000000000000000000000602082015250565b5f6126a7602183612170565b91506126b28261264d565b604082019050919050565b5f6020820190508181035f8301526126d48161269b565b9050919050565b7f556e6c6f636b2074696d65206d75737420626520696e207468652066757475725f8201527f6500000000000000000000000000000000000000000000000000000000000000602082015250565b5f612735602183612170565b9150612740826126db565b604082019050919050565b5f6020820190508181035f83015261276281612729565b9050919050565b5f61277382611cd8565b915061277e83611cd8565b925082820390508181111561279657612795612110565b5b92915050565b5f6060820190506127af5f830186611ce1565b6127bc6020830185611ce1565b6127c96040830184611ce1565b949350505050565b7f4e6f74206f776e657200000000000000000000000000000000000000000000005f82015250565b5f612805600983612170565b9150612810826127d1565b602082019050919050565b5f6020820190508181035f830152612832816127f9565b9050919050565b7f4e6f2066756e647320617661696c61626c6500000000000000000000000000005f82015250565b5f61286d601283612170565b915061287882612839565b602082019050919050565b5f6020820190508181035f83015261289a81612861565b9050919050565b7f4e6577206f776e6572206973207a65726f2061646472657373000000000000005f82015250565b5f6128d5601983612170565b91506128e0826128a1565b602082019050919050565b5f6020820190508181035f830152612902816128c9565b9050919050565b7f4e6577206f776e65722069732063757272656e74206f776e65720000000000005f82015250565b5f61293d601a83612170565b915061294882612909565b602082019050919050565b5f6020820190508181035f83015261296a81612931565b9050919050565b5f61297b82611cd8565b915061298683611cd8565b925082820261299481611cd8565b915082820484148315176129ab576129aa612110565b5b509291505056fea26469706673582212204c01195c43f7245cd2f9a14e37c70510325f1dcda8f2b42b0417964aa32d136064736f6c634300081c0033","linkReferences":{}},"methodIdentifiers":{"acceptOwnership()":"79ba5097","deposit(uint256)":"b6b55f25","emergencyWithdraw()":"db2e21bc","getActiveVaults(address)":"57c57f72","getAllVaults(address)":"a2e5437c","getTotalBalance(address)":"d3d38193","getUnlockedBalance(address)":"129de5bf","getVault(address,uint256)":"d99d13f5","getVaultCount(address)":"77e1296e","owner()":"8da5cb5b","pendingOwner()":"e30c3978","token()":"fc0c546a","transferOwnership(address)":"f2fde38b","withdraw(uint256)":"2e1a7d4d","withdrawAll()":"853828b6"},"id":31}